{
  "contractName": "mysolutionerc721",
  "abi": [
    {
      "inputs": [
        {
          "internalType": "string",
          "name": "name_",
          "type": "string"
        },
        {
          "internalType": "string",
          "name": "symbol_",
          "type": "string"
        },
        {
          "internalType": "uint256",
          "name": "_price",
          "type": "uint256"
        }
      ],
      "stateMutability": "nonpayable",
      "type": "constructor"
    },
    {
      "anonymous": false,
      "inputs": [
        {
          "indexed": true,
          "internalType": "address",
          "name": "owner",
          "type": "address"
        },
        {
          "indexed": true,
          "internalType": "address",
          "name": "approved",
          "type": "address"
        },
        {
          "indexed": true,
          "internalType": "uint256",
          "name": "tokenId",
          "type": "uint256"
        }
      ],
      "name": "Approval",
      "type": "event"
    },
    {
      "anonymous": false,
      "inputs": [
        {
          "indexed": true,
          "internalType": "address",
          "name": "owner",
          "type": "address"
        },
        {
          "indexed": true,
          "internalType": "address",
          "name": "operator",
          "type": "address"
        },
        {
          "indexed": false,
          "internalType": "bool",
          "name": "approved",
          "type": "bool"
        }
      ],
      "name": "ApprovalForAll",
      "type": "event"
    },
    {
      "anonymous": false,
      "inputs": [
        {
          "indexed": true,
          "internalType": "address",
          "name": "from",
          "type": "address"
        },
        {
          "indexed": true,
          "internalType": "address",
          "name": "to",
          "type": "address"
        },
        {
          "indexed": true,
          "internalType": "uint256",
          "name": "tokenId",
          "type": "uint256"
        }
      ],
      "name": "Transfer",
      "type": "event"
    },
    {
      "inputs": [],
      "name": "Breederprice",
      "outputs": [
        {
          "internalType": "uint256",
          "name": "",
          "type": "uint256"
        }
      ],
      "stateMutability": "view",
      "type": "function"
    },
    {
      "inputs": [
        {
          "internalType": "uint256",
          "name": "",
          "type": "uint256"
        }
      ],
      "name": "NFTReproDetails",
      "outputs": [
        {
          "internalType": "bool",
          "name": "IsforReproduction",
          "type": "bool"
        },
        {
          "internalType": "uint256",
          "name": "pricerepro",
          "type": "uint256"
        }
      ],
      "stateMutability": "view",
      "type": "function"
    },
    {
      "inputs": [
        {
          "internalType": "uint256",
          "name": "",
          "type": "uint256"
        }
      ],
      "name": "NFTSaleDetails",
      "outputs": [
        {
          "internalType": "bool",
          "name": "IsforSale",
          "type": "bool"
        },
        {
          "internalType": "uint256",
          "name": "price",
          "type": "uint256"
        }
      ],
      "stateMutability": "view",
      "type": "function"
    },
    {
      "inputs": [
        {
          "internalType": "uint256",
          "name": "",
          "type": "uint256"
        }
      ],
      "name": "NFTdetails",
      "outputs": [
        {
          "internalType": "string",
          "name": "name",
          "type": "string"
        },
        {
          "internalType": "bool",
          "name": "wings",
          "type": "bool"
        },
        {
          "internalType": "uint256",
          "name": "legs",
          "type": "uint256"
        },
        {
          "internalType": "uint256",
          "name": "sex",
          "type": "uint256"
        }
      ],
      "stateMutability": "view",
      "type": "function"
    },
    {
      "inputs": [],
      "name": "NFTnumber",
      "outputs": [
        {
          "internalType": "uint256",
          "name": "",
          "type": "uint256"
        }
      ],
      "stateMutability": "view",
      "type": "function"
    },
    {
      "inputs": [
        {
          "internalType": "uint256",
          "name": "",
          "type": "uint256"
        }
      ],
      "name": "ParentsofAnimal",
      "outputs": [
        {
          "internalType": "uint256",
          "name": "parent1",
          "type": "uint256"
        },
        {
          "internalType": "uint256",
          "name": "parent2",
          "type": "uint256"
        }
      ],
      "stateMutability": "view",
      "type": "function"
    },
    {
      "inputs": [
        {
          "internalType": "address",
          "name": "to",
          "type": "address"
        },
        {
          "internalType": "uint256",
          "name": "tokenId",
          "type": "uint256"
        }
      ],
      "name": "approve",
      "outputs": [],
      "stateMutability": "nonpayable",
      "type": "function"
    },
    {
      "inputs": [
        {
          "internalType": "uint256",
          "name": "",
          "type": "uint256"
        }
      ],
      "name": "authorizedToReproduce",
      "outputs": [
        {
          "internalType": "address",
          "name": "",
          "type": "address"
        }
      ],
      "stateMutability": "view",
      "type": "function"
    },
    {
      "inputs": [
        {
          "internalType": "address",
          "name": "owner",
          "type": "address"
        }
      ],
      "name": "balanceOf",
      "outputs": [
        {
          "internalType": "uint256",
          "name": "",
          "type": "uint256"
        }
      ],
      "stateMutability": "view",
      "type": "function"
    },
    {
      "inputs": [],
      "name": "baseURI",
      "outputs": [
        {
          "internalType": "string",
          "name": "",
          "type": "string"
        }
      ],
      "stateMutability": "view",
      "type": "function"
    },
    {
      "inputs": [
        {
          "internalType": "address",
          "name": "",
          "type": "address"
        }
      ],
      "name": "breeder",
      "outputs": [
        {
          "internalType": "bool",
          "name": "",
          "type": "bool"
        }
      ],
      "stateMutability": "view",
      "type": "function"
    },
    {
      "inputs": [
        {
          "internalType": "uint256",
          "name": "tokenId",
          "type": "uint256"
        }
      ],
      "name": "getApproved",
      "outputs": [
        {
          "internalType": "address",
          "name": "",
          "type": "address"
        }
      ],
      "stateMutability": "view",
      "type": "function"
    },
    {
      "inputs": [
        {
          "internalType": "address",
          "name": "owner",
          "type": "address"
        },
        {
          "internalType": "address",
          "name": "operator",
          "type": "address"
        }
      ],
      "name": "isApprovedForAll",
      "outputs": [
        {
          "internalType": "bool",
          "name": "",
          "type": "bool"
        }
      ],
      "stateMutability": "view",
      "type": "function"
    },
    {
      "inputs": [],
      "name": "name",
      "outputs": [
        {
          "internalType": "string",
          "name": "",
          "type": "string"
        }
      ],
      "stateMutability": "view",
      "type": "function"
    },
    {
      "inputs": [
        {
          "internalType": "uint256",
          "name": "tokenId",
          "type": "uint256"
        }
      ],
      "name": "ownerOf",
      "outputs": [
        {
          "internalType": "address",
          "name": "",
          "type": "address"
        }
      ],
      "stateMutability": "view",
      "type": "function"
    },
    {
      "inputs": [],
      "name": "proprio",
      "outputs": [
        {
          "internalType": "address",
          "name": "",
          "type": "address"
        }
      ],
      "stateMutability": "view",
      "type": "function"
    },
    {
      "inputs": [
        {
          "internalType": "address",
          "name": "from",
          "type": "address"
        },
        {
          "internalType": "address",
          "name": "to",
          "type": "address"
        },
        {
          "internalType": "uint256",
          "name": "tokenId",
          "type": "uint256"
        }
      ],
      "name": "safeTransferFrom",
      "outputs": [],
      "stateMutability": "nonpayable",
      "type": "function"
    },
    {
      "inputs": [
        {
          "internalType": "address",
          "name": "from",
          "type": "address"
        },
        {
          "internalType": "address",
          "name": "to",
          "type": "address"
        },
        {
          "internalType": "uint256",
          "name": "tokenId",
          "type": "uint256"
        },
        {
          "internalType": "bytes",
          "name": "_data",
          "type": "bytes"
        }
      ],
      "name": "safeTransferFrom",
      "outputs": [],
      "stateMutability": "nonpayable",
      "type": "function"
    },
    {
      "inputs": [
        {
          "internalType": "address",
          "name": "operator",
          "type": "address"
        },
        {
          "internalType": "bool",
          "name": "approved",
          "type": "bool"
        }
      ],
      "name": "setApprovalForAll",
      "outputs": [],
      "stateMutability": "nonpayable",
      "type": "function"
    },
    {
      "inputs": [
        {
          "internalType": "bytes4",
          "name": "interfaceId",
          "type": "bytes4"
        }
      ],
      "name": "supportsInterface",
      "outputs": [
        {
          "internalType": "bool",
          "name": "",
          "type": "bool"
        }
      ],
      "stateMutability": "view",
      "type": "function"
    },
    {
      "inputs": [],
      "name": "symbol",
      "outputs": [
        {
          "internalType": "string",
          "name": "",
          "type": "string"
        }
      ],
      "stateMutability": "view",
      "type": "function"
    },
    {
      "inputs": [
        {
          "internalType": "uint256",
          "name": "index",
          "type": "uint256"
        }
      ],
      "name": "tokenByIndex",
      "outputs": [
        {
          "internalType": "uint256",
          "name": "",
          "type": "uint256"
        }
      ],
      "stateMutability": "view",
      "type": "function"
    },
    {
      "inputs": [
        {
          "internalType": "uint256",
          "name": "tokenId",
          "type": "uint256"
        }
      ],
      "name": "tokenURI",
      "outputs": [
        {
          "internalType": "string",
          "name": "",
          "type": "string"
        }
      ],
      "stateMutability": "view",
      "type": "function"
    },
    {
      "inputs": [],
      "name": "totalSupply",
      "outputs": [
        {
          "internalType": "uint256",
          "name": "",
          "type": "uint256"
        }
      ],
      "stateMutability": "view",
      "type": "function"
    },
    {
      "inputs": [
        {
          "internalType": "address",
          "name": "from",
          "type": "address"
        },
        {
          "internalType": "address",
          "name": "to",
          "type": "address"
        },
        {
          "internalType": "uint256",
          "name": "tokenId",
          "type": "uint256"
        }
      ],
      "name": "transferFrom",
      "outputs": [],
      "stateMutability": "nonpayable",
      "type": "function"
    },
    {
      "inputs": [
        {
          "internalType": "address",
          "name": "_to",
          "type": "address"
        },
        {
          "internalType": "string",
          "name": "_name",
          "type": "string"
        },
        {
          "internalType": "bool",
          "name": "_wings",
          "type": "bool"
        },
        {
          "internalType": "uint256",
          "name": "_legs",
          "type": "uint256"
        },
        {
          "internalType": "uint256",
          "name": "_sex",
          "type": "uint256"
        }
      ],
      "name": "Creation",
      "outputs": [],
      "stateMutability": "nonpayable",
      "type": "function"
    },
    {
      "inputs": [
        {
          "internalType": "address",
          "name": "account",
          "type": "address"
        }
      ],
      "name": "isBreeder",
      "outputs": [
        {
          "internalType": "bool",
          "name": "",
          "type": "bool"
        }
      ],
      "stateMutability": "nonpayable",
      "type": "function"
    },
    {
      "inputs": [],
      "name": "registrationPrice",
      "outputs": [
        {
          "internalType": "uint256",
          "name": "",
          "type": "uint256"
        }
      ],
      "stateMutability": "nonpayable",
      "type": "function"
    },
    {
      "inputs": [],
      "name": "registerMeAsBreeder",
      "outputs": [],
      "stateMutability": "payable",
      "type": "function"
    },
    {
      "inputs": [
        {
          "internalType": "uint256",
          "name": "sex",
          "type": "uint256"
        },
        {
          "internalType": "uint256",
          "name": "legs",
          "type": "uint256"
        },
        {
          "internalType": "bool",
          "name": "wings",
          "type": "bool"
        },
        {
          "internalType": "string",
          "name": "name",
          "type": "string"
        }
      ],
      "name": "declareAnimal",
      "outputs": [
        {
          "internalType": "uint256",
          "name": "",
          "type": "uint256"
        }
      ],
      "stateMutability": "nonpayable",
      "type": "function"
    },
    {
      "inputs": [
        {
          "internalType": "uint256",
          "name": "animalNumber",
          "type": "uint256"
        }
      ],
      "name": "getAnimalCharacteristics",
      "outputs": [
        {
          "internalType": "string",
          "name": "_name",
          "type": "string"
        },
        {
          "internalType": "bool",
          "name": "_wings",
          "type": "bool"
        },
        {
          "internalType": "uint256",
          "name": "_legs",
          "type": "uint256"
        },
        {
          "internalType": "uint256",
          "name": "_sex",
          "type": "uint256"
        }
      ],
      "stateMutability": "nonpayable",
      "type": "function"
    },
    {
      "inputs": [
        {
          "internalType": "uint256",
          "name": "animalNumber",
          "type": "uint256"
        }
      ],
      "name": "declareDeadAnimal",
      "outputs": [],
      "stateMutability": "nonpayable",
      "type": "function"
    },
    {
      "inputs": [
        {
          "internalType": "address",
          "name": "owner",
          "type": "address"
        },
        {
          "internalType": "uint256",
          "name": "index",
          "type": "uint256"
        }
      ],
      "name": "tokenOfOwnerByIndex",
      "outputs": [
        {
          "internalType": "uint256",
          "name": "",
          "type": "uint256"
        }
      ],
      "stateMutability": "view",
      "type": "function"
    },
    {
      "inputs": [
        {
          "internalType": "uint256",
          "name": "animalNumber",
          "type": "uint256"
        }
      ],
      "name": "isAnimalForSale",
      "outputs": [
        {
          "internalType": "bool",
          "name": "",
          "type": "bool"
        }
      ],
      "stateMutability": "view",
      "type": "function"
    },
    {
      "inputs": [
        {
          "internalType": "uint256",
          "name": "animalNumber",
          "type": "uint256"
        }
      ],
      "name": "animalPrice",
      "outputs": [
        {
          "internalType": "uint256",
          "name": "",
          "type": "uint256"
        }
      ],
      "stateMutability": "view",
      "type": "function"
    },
    {
      "inputs": [
        {
          "internalType": "uint256",
          "name": "animalNumber",
          "type": "uint256"
        }
      ],
      "name": "buyAnimal",
      "outputs": [],
      "stateMutability": "payable",
      "type": "function"
    },
    {
      "inputs": [
        {
          "internalType": "uint256",
          "name": "animalNumber",
          "type": "uint256"
        },
        {
          "internalType": "uint256",
          "name": "price",
          "type": "uint256"
        }
      ],
      "name": "offerForSale",
      "outputs": [],
      "stateMutability": "nonpayable",
      "type": "function"
    },
    {
      "inputs": [
        {
          "internalType": "uint256",
          "name": "sex",
          "type": "uint256"
        },
        {
          "internalType": "uint256",
          "name": "legs",
          "type": "uint256"
        },
        {
          "internalType": "bool",
          "name": "wings",
          "type": "bool"
        },
        {
          "internalType": "string",
          "name": "name",
          "type": "string"
        },
        {
          "internalType": "uint256",
          "name": "parent1",
          "type": "uint256"
        },
        {
          "internalType": "uint256",
          "name": "parent2",
          "type": "uint256"
        }
      ],
      "name": "declareAnimalWithParents",
      "outputs": [
        {
          "internalType": "uint256",
          "name": "",
          "type": "uint256"
        }
      ],
      "stateMutability": "nonpayable",
      "type": "function"
    },
    {
      "inputs": [
        {
          "internalType": "uint256",
          "name": "animalNumber",
          "type": "uint256"
        }
      ],
      "name": "getParents",
      "outputs": [
        {
          "internalType": "uint256",
          "name": "",
          "type": "uint256"
        },
        {
          "internalType": "uint256",
          "name": "",
          "type": "uint256"
        }
      ],
      "stateMutability": "nonpayable",
      "type": "function"
    },
    {
      "inputs": [
        {
          "internalType": "uint256",
          "name": "animalNumber",
          "type": "uint256"
        }
      ],
      "name": "canReproduce",
      "outputs": [
        {
          "internalType": "bool",
          "name": "",
          "type": "bool"
        }
      ],
      "stateMutability": "nonpayable",
      "type": "function"
    },
    {
      "inputs": [
        {
          "internalType": "uint256",
          "name": "animalNumber",
          "type": "uint256"
        }
      ],
      "name": "reproductionPrice",
      "outputs": [
        {
          "internalType": "uint256",
          "name": "",
          "type": "uint256"
        }
      ],
      "stateMutability": "view",
      "type": "function"
    },
    {
      "inputs": [
        {
          "internalType": "uint256",
          "name": "animalNumber",
          "type": "uint256"
        },
        {
          "internalType": "uint256",
          "name": "priceOfReproduction",
          "type": "uint256"
        }
      ],
      "name": "offerForReproduction",
      "outputs": [
        {
          "internalType": "uint256",
          "name": "",
          "type": "uint256"
        }
      ],
      "stateMutability": "nonpayable",
      "type": "function"
    },
    {
      "inputs": [
        {
          "internalType": "uint256",
          "name": "animalNumber",
          "type": "uint256"
        }
      ],
      "name": "authorizedBreederToReproduce",
      "outputs": [
        {
          "internalType": "address",
          "name": "",
          "type": "address"
        }
      ],
      "stateMutability": "nonpayable",
      "type": "function"
    },
    {
      "inputs": [
        {
          "internalType": "uint256",
          "name": "animalNumber",
          "type": "uint256"
        }
      ],
      "name": "payForReproduction",
      "outputs": [],
      "stateMutability": "payable",
      "type": "function"
    }
  ],
  "bytecode": "0x60806040523480156200001157600080fd5b5060405162004c9738038062004c97833981810160405260608110156200003757600080fd5b81019080805160405193929190846401000000008211156200005857600080fd5b838201915060208201858111156200006f57600080fd5b82518660018202830111640100000000821117156200008d57600080fd5b8083526020830192505050908051906020019080838360005b83811015620000c3578082015181840152602081019050620000a6565b50505050905090810190601f168015620000f15780820380516001836020036101000a031916815260200191505b50604052602001805160405193929190846401000000008211156200011557600080fd5b838201915060208201858111156200012c57600080fd5b82518660018202830111640100000000821117156200014a57600080fd5b8083526020830192505050908051906020019080838360005b838110156200018057808201518184015260208101905062000163565b50505050905090810190601f168015620001ae5780820380516001836020036101000a031916815260200191505b50604052602001805190602001909291905050508282620001dc6301ffc9a760e01b620002c860201b60201c565b8160069080519060200190620001f4929190620003d1565b5080600790805190602001906200020d929190620003d1565b50620002266380ac58cd60e01b620002c860201b60201c565b6200023e635b5e139f60e01b620002c860201b60201c565b6200025663780e9d6360e01b620002c860201b60201c565b50506001601160003373ffffffffffffffffffffffffffffffffffffffff1673ffffffffffffffffffffffffffffffffffffffff16815260200190815260200160002060006101000a81548160ff02191690831515021790555080600c819055506001600b8190555050505062000480565b63ffffffff60e01b817bffffffffffffffffffffffffffffffffffffffffffffffffffffffff1916141562000365576040517f08c379a000000000000000000000000000000000000000000000000000000000815260040180806020018281038252601c8152602001807f4552433136353a20696e76616c696420696e746572666163652069640000000081525060200191505060405180910390fd5b6001600080837bffffffffffffffffffffffffffffffffffffffffffffffffffffffff19167bffffffffffffffffffffffffffffffffffffffffffffffffffffffff1916815260200190815260200160002060006101000a81548160ff02191690831515021790555050565b828054600181600116156101000203166002900490600052602060002090601f016020900481019282601f106200041457805160ff191683800117855562000445565b8280016001018555821562000445579182015b828111156200044457825182559160200191906001019062000427565b5b50905062000454919062000458565b5090565b6200047d91905b80821115620004795760008160009055506001016200045f565b5090565b90565b61480780620004906000396000f3fe6080604052600436106102675760003560e01c80635c9b37cb11610144578063b5696ca9116100b6578063c7b9cb0b1161007a578063c7b9cb0b14611265578063c87b56dd146112ce578063e3d0428614611382578063e985e9c51461148a578063ec89777214611513578063ff36ed981461154e57610267565b8063b5696ca914610fae578063b75e075014610fd9578063b88d4fde146110a6578063bb3f8016146111b8578063c5f51f731461121257610267565b806388221724116101085780638822172414610d0657806392633b0714610d6f578063929c13e314610d9a57806395d89b4114610e68578063a0c32c8f14610ef8578063a22cb46514610f5157610267565b80635c9b37cb14610afb5780636352211e14610b515780636c0360eb14610bcc57806370a0823114610c5c57806377386df314610cc157610267565b806327aa8f31116101dd5780633573dbd1116101a15780633573dbd11461092e5780633937cfac1461097d57806341d30bae146109d457806342842e0e146109de5780634abda8c814610a595780634f6ccce714610aac57610267565b806327aa8f31146106c05780632a4672b21461073b5780632f745c591461078a57806330304abc146107f957806332b0f3761461087457610267565b80631a14e94a1161022f5780631a14e94a1461046f578063208fa2541461049d57806321658658146104f7578063236169b01461052257806323b872dd146105ef578063242a00871461066a57610267565b806301ffc9a71461026c57806306fdde03146102de578063081812fc1461036e578063095ea7b3146103e957806318160ddd14610444575b600080fd5b34801561027857600080fd5b506102c46004803603602081101561028f57600080fd5b8101908080357bffffffffffffffffffffffffffffffffffffffffffffffffffffffff1916906020019092919050505061157c565b604051808215151515815260200191505060405180910390f35b3480156102ea57600080fd5b506102f36115e3565b6040518080602001828103825283818151815260200191508051906020019080838360005b83811015610333578082015181840152602081019050610318565b50505050905090810190601f1680156103605780820380516001836020036101000a031916815260200191505b509250505060405180910390f35b34801561037a57600080fd5b506103a76004803603602081101561039157600080fd5b8101908080359060200190929190505050611685565b604051808273ffffffffffffffffffffffffffffffffffffffff1673ffffffffffffffffffffffffffffffffffffffff16815260200191505060405180910390f35b3480156103f557600080fd5b506104426004803603604081101561040c57600080fd5b81019080803573ffffffffffffffffffffffffffffffffffffffff16906020019092919080359060200190929190505050611720565b005b34801561045057600080fd5b50610459611864565b6040518082815260200191505060405180910390f35b61049b6004803603602081101561048557600080fd5b8101908080359060200190929190505050611875565b005b3480156104a957600080fd5b506104d6600480360360208110156104c057600080fd5b81019080803590602001909291905050506118da565b60405180831515151581526020018281526020019250505060405180910390f35b34801561050357600080fd5b5061050c61190b565b6040518082815260200191505060405180910390f35b34801561052e57600080fd5b5061055b6004803603602081101561054557600080fd5b8101908080359060200190929190505050611915565b604051808060200185151515158152602001848152602001838152602001828103825286818151815260200191508051906020019080838360005b838110156105b1578082015181840152602081019050610596565b50505050905090810190601f1680156105de5780820380516001836020036101000a031916815260200191505b509550505050505060405180910390f35b3480156105fb57600080fd5b506106686004803603606081101561061257600080fd5b81019080803573ffffffffffffffffffffffffffffffffffffffff169060200190929190803573ffffffffffffffffffffffffffffffffffffffff169060200190929190803590602001909291905050506119ea565b005b34801561067657600080fd5b506106a36004803603602081101561068d57600080fd5b8101908080359060200190929190505050611a60565b604051808381526020018281526020019250505060405180910390f35b3480156106cc57600080fd5b506106f9600480360360208110156106e357600080fd5b8101908080359060200190929190505050611a9a565b604051808273ffffffffffffffffffffffffffffffffffffffff1673ffffffffffffffffffffffffffffffffffffffff16815260200191505060405180910390f35b34801561074757600080fd5b506107746004803603602081101561075e57600080fd5b8101908080359060200190929190505050611ad7565b6040518082815260200191505060405180910390f35b34801561079657600080fd5b506107e3600480360360408110156107ad57600080fd5b81019080803573ffffffffffffffffffffffffffffffffffffffff16906020019092919080359060200190929190505050611af7565b6040518082815260200191505060405180910390f35b34801561080557600080fd5b506108326004803603602081101561081c57600080fd5b8101908080359060200190929190505050611b0b565b604051808273ffffffffffffffffffffffffffffffffffffffff1673ffffffffffffffffffffffffffffffffffffffff16815260200191505060405180910390f35b34801561088057600080fd5b506109186004803603608081101561089757600080fd5b810190808035906020019092919080359060200190929190803515159060200190929190803590602001906401000000008111156108d457600080fd5b8201836020820111156108e657600080fd5b8035906020019184600183028401116401000000008311171561090857600080fd5b9091929391929390505050611b3e565b6040518082815260200191505060405180910390f35b34801561093a57600080fd5b506109676004803603602081101561095157600080fd5b8101908080359060200190929190505050611c65565b6040518082815260200191505060405180910390f35b34801561098957600080fd5b50610992611c85565b604051808273ffffffffffffffffffffffffffffffffffffffff1673ffffffffffffffffffffffffffffffffffffffff16815260200191505060405180910390f35b6109dc611cab565b005b3480156109ea57600080fd5b50610a5760048036036060811015610a0157600080fd5b81019080803573ffffffffffffffffffffffffffffffffffffffff169060200190929190803573ffffffffffffffffffffffffffffffffffffffff16906020019092919080359060200190929190505050611ddf565b005b348015610a6557600080fd5b50610a9260048036036020811015610a7c57600080fd5b8101908080359060200190929190505050611dff565b604051808215151515815260200191505060405180910390f35b348015610ab857600080fd5b50610ae560048036036020811015610acf57600080fd5b8101908080359060200190929190505050611e2c565b6040518082815260200191505060405180910390f35b348015610b0757600080fd5b50610b3460048036036020811015610b1e57600080fd5b8101908080359060200190929190505050611e4f565b604051808381526020018281526020019250505060405180910390f35b348015610b5d57600080fd5b50610b8a60048036036020811015610b7457600080fd5b8101908080359060200190929190505050611e73565b604051808273ffffffffffffffffffffffffffffffffffffffff1673ffffffffffffffffffffffffffffffffffffffff16815260200191505060405180910390f35b348015610bd857600080fd5b50610be1611eaa565b6040518080602001828103825283818151815260200191508051906020019080838360005b83811015610c21578082015181840152602081019050610c06565b50505050905090810190601f168015610c4e5780820380516001836020036101000a031916815260200191505b509250505060405180910390f35b348015610c6857600080fd5b50610cab60048036036020811015610c7f57600080fd5b81019080803573ffffffffffffffffffffffffffffffffffffffff169060200190929190505050611f4c565b6040518082815260200191505060405180910390f35b348015610ccd57600080fd5b50610d0460048036036040811015610ce457600080fd5b810190808035906020019092919080359060200190929190505050612021565b005b348015610d1257600080fd5b50610d5560048036036020811015610d2957600080fd5b81019080803573ffffffffffffffffffffffffffffffffffffffff169060200190929190505050612118565b604051808215151515815260200191505060405180910390f35b348015610d7b57600080fd5b50610d84612138565b6040518082815260200191505060405180910390f35b348015610da657600080fd5b50610e52600480360360c0811015610dbd57600080fd5b81019080803590602001909291908035906020019092919080351515906020019092919080359060200190640100000000811115610dfa57600080fd5b820183602082011115610e0c57600080fd5b80359060200191846001830284011164010000000083111715610e2e57600080fd5b9091929391929390803590602001909291908035906020019092919050505061213e565b6040518082815260200191505060405180910390f35b348015610e7457600080fd5b50610e7d61235e565b6040518080602001828103825283818151815260200191508051906020019080838360005b83811015610ebd578082015181840152602081019050610ea2565b50505050905090810190601f168015610eea5780820380516001836020036101000a031916815260200191505b509250505060405180910390f35b348015610f0457600080fd5b50610f3b60048036036040811015610f1b57600080fd5b810190808035906020019092919080359060200190929190505050612400565b6040518082815260200191505060405180910390f35b348015610f5d57600080fd5b50610fac60048036036040811015610f7457600080fd5b81019080803573ffffffffffffffffffffffffffffffffffffffff169060200190929190803515159060200190929190505050612514565b005b348015610fba57600080fd5b50610fc36126cc565b6040518082815260200191505060405180910390f35b348015610fe557600080fd5b5061101260048036036020811015610ffc57600080fd5b81019080803590602001909291905050506126d2565b604051808060200185151515158152602001848152602001838152602001828103825286818151815260200191508051906020019080838360005b8381101561106857808201518184015260208101905061104d565b50505050905090810190601f1680156110955780820380516001836020036101000a031916815260200191505b509550505050505060405180910390f35b3480156110b257600080fd5b506111b6600480360360808110156110c957600080fd5b81019080803573ffffffffffffffffffffffffffffffffffffffff169060200190929190803573ffffffffffffffffffffffffffffffffffffffff169060200190929190803590602001909291908035906020019064010000000081111561113057600080fd5b82018360208201111561114257600080fd5b8035906020019184600183028401116401000000008311171561116457600080fd5b91908080601f016020809104026020016040519081016040528093929190818152602001838380828437600081840152601f19601f8201169050808301925050505050505091929192905050506127bb565b005b3480156111c457600080fd5b506111f1600480360360208110156111db57600080fd5b8101908080359060200190929190505050612833565b60405180831515151581526020018281526020019250505060405180910390f35b34801561121e57600080fd5b5061124b6004803603602081101561123557600080fd5b8101908080359060200190929190505050612864565b604051808215151515815260200191505060405180910390f35b34801561127157600080fd5b506112b46004803603602081101561128857600080fd5b81019080803573ffffffffffffffffffffffffffffffffffffffff169060200190929190505050612891565b604051808215151515815260200191505060405180910390f35b3480156112da57600080fd5b50611307600480360360208110156112f157600080fd5b81019080803590602001909291905050506128e7565b6040518080602001828103825283818151815260200191508051906020019080838360005b8381101561134757808201518184015260208101905061132c565b50505050905090810190601f1680156113745780820380516001836020036101000a031916815260200191505b509250505060405180910390f35b34801561138e57600080fd5b50611488600480360360a08110156113a557600080fd5b81019080803573ffffffffffffffffffffffffffffffffffffffff169060200190929190803590602001906401000000008111156113e257600080fd5b8201836020820111156113f457600080fd5b8035906020019184600183028401116401000000008311171561141657600080fd5b91908080601f016020809104026020016040519081016040528093929190818152602001838380828437600081840152601f19601f8201169050808301925050505050505091929192908035151590602001909291908035906020019092919080359060200190929190505050612bb8565b005b34801561149657600080fd5b506114f9600480360360408110156114ad57600080fd5b81019080803573ffffffffffffffffffffffffffffffffffffffff169060200190929190803573ffffffffffffffffffffffffffffffffffffffff169060200190929190505050612d39565b604051808215151515815260200191505060405180910390f35b34801561151f57600080fd5b5061154c6004803603602081101561153657600080fd5b8101908080359060200190929190505050612dcd565b005b61157a6004803603602081101561156457600080fd5b8101908080359060200190929190505050612e8a565b005b6000806000837bffffffffffffffffffffffffffffffffffffffffffffffffffffffff19167bffffffffffffffffffffffffffffffffffffffffffffffffffffffff1916815260200190815260200160002060009054906101000a900460ff169050919050565b606060068054600181600116156101000203166002900480601f01602080910402602001604051908101604052809291908181526020018280546001816001161561010002031660029004801561167b5780601f106116505761010080835404028352916020019161167b565b820191906000526020600020905b81548152906001019060200180831161165e57829003601f168201915b5050505050905090565b600061169082612f01565b6116e5576040517f08c379a000000000000000000000000000000000000000000000000000000000815260040180806020018281038252602c815260200180614686602c913960400191505060405180910390fd5b6004600083815260200190815260200160002060009054906101000a900473ffffffffffffffffffffffffffffffffffffffff169050919050565b600061172b82611e73565b90508073ffffffffffffffffffffffffffffffffffffffff168373ffffffffffffffffffffffffffffffffffffffff1614156117b2576040517f08c379a00000000000000000000000000000000000000000000000000000000081526004018080602001828103825260218152602001806147466021913960400191505060405180910390fd5b8073ffffffffffffffffffffffffffffffffffffffff166117d1612f1e565b73ffffffffffffffffffffffffffffffffffffffff16148061180057506117ff816117fa612f1e565b612d39565b5b611855576040517f08c379a00000000000000000000000000000000000000000000000000000000081526004018080602001828103825260388152602001806145d96038913960400191505060405180910390fd5b61185f8383612f26565b505050565b60006118706002612fdf565b905090565b600f600082815260200190815260200160002060000160009054906101000a900460ff166118a257600080fd5b600f60008281526020019081526020016000206001015434146118c457600080fd5b6118d76118d082611e73565b3383612ff4565b50565b60106020528060005260406000206000915090508060000160009054906101000a900460ff16908060010154905082565b6000600c54905090565b600e602052806000526040600020600091509050806000018054600181600116156101000203166002900480601f0160208091040260200160405190810160405280929190818152602001828054600181600116156101000203166002900480156119c15780601f10611996576101008083540402835291602001916119c1565b820191906000526020600020905b8154815290600101906020018083116119a457829003601f168201915b5050505050908060010160009054906101000a900460ff16908060020154908060030154905084565b6119fb6119f5612f1e565b82613237565b611a50576040517f08c379a00000000000000000000000000000000000000000000000000000000081526004018080602001828103825260318152602001806147a16031913960400191505060405180910390fd5b611a5b838383612ff4565b505050565b600080600d600084815260200190815260200160002060000154600d60008581526020019081526020016000206001015491509150915091565b60006012600083815260200190815260200160002060009054906101000a900473ffffffffffffffffffffffffffffffffffffffff169050919050565b600060106000838152602001908152602001600020600101549050919050565b6000611b03838361332b565b905092915050565b60126020528060005260406000206000915054906101000a900473ffffffffffffffffffffffffffffffffffffffff1681565b60003073ffffffffffffffffffffffffffffffffffffffff1663c7b9cb0b336040518263ffffffff1660e01b8152600401808273ffffffffffffffffffffffffffffffffffffffff1673ffffffffffffffffffffffffffffffffffffffff168152602001915050602060405180830381600087803b158015611bbf57600080fd5b505af1158015611bd3573d6000803e3d6000fd5b505050506040513d6020811015611be957600080fd5b8101908080519060200190929190505050611c0357600080fd5b611c543384848080601f016020809104026020016040519081016040528093929190818152602001838380828437600081840152601f19601f8201169050808301925050505050505086888a612bb8565b6001600b5403905095945050505050565b6000600f6000838152602001908152602001600020600101549050919050565b600a60009054906101000a900473ffffffffffffffffffffffffffffffffffffffff1681565b3073ffffffffffffffffffffffffffffffffffffffff1663216586586040518163ffffffff1660e01b8152600401602060405180830381600087803b158015611cf357600080fd5b505af1158015611d07573d6000803e3d6000fd5b505050506040513d6020811015611d1d57600080fd5b81019080805190602001909291905050503414611d85576040517f08c379a000000000000000000000000000000000000000000000000000000000815260040180806020018281038252603c81526020018061470a603c913960400191505060405180910390fd5b6001601160003373ffffffffffffffffffffffffffffffffffffffff1673ffffffffffffffffffffffffffffffffffffffff16815260200190815260200160002060006101000a81548160ff021916908315150217905550565b611dfa838383604051806020016040528060008152506127bb565b505050565b60006010600083815260200190815260200160002060000160009054906101000a900460ff169050919050565b600080611e4383600261338690919063ffffffff16565b50905080915050919050565b600d6020528060005260406000206000915090508060000154908060010154905082565b6000611ea38260405180606001604052806029815260200161463b6029913960026133b59092919063ffffffff16565b9050919050565b606060098054600181600116156101000203166002900480601f016020809104026020016040519081016040528092919081815260200182805460018160011615610100020316600290048015611f425780601f10611f1757610100808354040283529160200191611f42565b820191906000526020600020905b815481529060010190602001808311611f2557829003601f168201915b5050505050905090565b60008073ffffffffffffffffffffffffffffffffffffffff168273ffffffffffffffffffffffffffffffffffffffff161415611fd3576040517f08c379a000000000000000000000000000000000000000000000000000000000815260040180806020018281038252602a815260200180614611602a913960400191505060405180910390fd5b61201a600160008473ffffffffffffffffffffffffffffffffffffffff1673ffffffffffffffffffffffffffffffffffffffff1681526020019081526020016000206133d4565b9050919050565b61202a82611e73565b73ffffffffffffffffffffffffffffffffffffffff163373ffffffffffffffffffffffffffffffffffffffff16146120ca576040517f08c379a00000000000000000000000000000000000000000000000000000000081526004018080602001828103825260208152602001807f796f7520617265206e6f7420746865206f776e6572206f6620746865206e667481525060200191505060405180910390fd5b80600f6000848152602001908152602001600020600101819055506001600f600084815260200190815260200160002060000160006101000a81548160ff0219169083151502179055505050565b60116020528060005260406000206000915054906101000a900460ff1681565b600c5481565b600061214982611e73565b73ffffffffffffffffffffffffffffffffffffffff166012600085815260200190815260200160002060009054906101000a900473ffffffffffffffffffffffffffffffffffffffff1673ffffffffffffffffffffffffffffffffffffffff16148061221b57506121b983611e73565b73ffffffffffffffffffffffffffffffffffffffff166012600084815260200190815260200160002060009054906101000a900473ffffffffffffffffffffffffffffffffffffffff1673ffffffffffffffffffffffffffffffffffffffff16145b61222457600080fd5b6122753386868080601f016020809104026020016040519081016040528093929190818152602001838380828437600081840152601f19601f82011690508083019250505050505050888a8c612bb8565b60006001600b540390506000600d6000838152602001908152602001600020905084816000018190555083816001018190555060006012600087815260200190815260200160002060006101000a81548173ffffffffffffffffffffffffffffffffffffffff021916908373ffffffffffffffffffffffffffffffffffffffff16021790555060006012600086815260200190815260200160002060006101000a81548173ffffffffffffffffffffffffffffffffffffffff021916908373ffffffffffffffffffffffffffffffffffffffff1602179055508192505050979650505050505050565b606060078054600181600116156101000203166002900480601f0160208091040260200160405190810160405280929190818152602001828054600181600116156101000203166002900480156123f65780601f106123cb576101008083540402835291602001916123f6565b820191906000526020600020905b8154815290600101906020018083116123d957829003601f168201915b5050505050905090565b600061240b83611e73565b73ffffffffffffffffffffffffffffffffffffffff163373ffffffffffffffffffffffffffffffffffffffff16146124ab576040517f08c379a00000000000000000000000000000000000000000000000000000000081526004018080602001828103825260158152602001807f796f7520617265206e6f7420746865206f776e6572000000000000000000000081525060200191505060405180910390fd5b60016010600085815260200190815260200160002060000160006101000a81548160ff0219169083151502179055508160106000858152602001908152602001600020600101819055506010600084815260200190815260200160002060010154905092915050565b61251c612f1e565b73ffffffffffffffffffffffffffffffffffffffff168273ffffffffffffffffffffffffffffffffffffffff1614156125bd576040517f08c379a00000000000000000000000000000000000000000000000000000000081526004018080602001828103825260198152602001807f4552433732313a20617070726f766520746f2063616c6c65720000000000000081525060200191505060405180910390fd5b80600560006125ca612f1e565b73ffffffffffffffffffffffffffffffffffffffff1673ffffffffffffffffffffffffffffffffffffffff16815260200190815260200160002060008473ffffffffffffffffffffffffffffffffffffffff1673ffffffffffffffffffffffffffffffffffffffff16815260200190815260200160002060006101000a81548160ff0219169083151502179055508173ffffffffffffffffffffffffffffffffffffffff16612677612f1e565b73ffffffffffffffffffffffffffffffffffffffff167f17307eab39ab6107e8899845ad3d59bd9653f200f220920489ca2b5937696c3183604051808215151515815260200191505060405180910390a35050565b600b5481565b6060600080600080600e60008781526020019081526020016000209050806000018160010160009054906101000a900460ff1682600201548360030154838054600181600116156101000203166002900480601f0160208091040260200160405190810160405280929190818152602001828054600181600116156101000203166002900480156127a45780601f10612779576101008083540402835291602001916127a4565b820191906000526020600020905b81548152906001019060200180831161278757829003601f168201915b505050505093509450945094509450509193509193565b6127cc6127c6612f1e565b83613237565b612821576040517f08c379a00000000000000000000000000000000000000000000000000000000081526004018080602001828103825260318152602001806147a16031913960400191505060405180910390fd5b61282d848484846133e9565b50505050565b600f6020528060005260406000206000915090508060000160009054906101000a900460ff16908060010154905082565b6000600f600083815260200190815260200160002060000160009054906101000a900460ff169050919050565b6000601160008373ffffffffffffffffffffffffffffffffffffffff1673ffffffffffffffffffffffffffffffffffffffff16815260200190815260200160002060009054906101000a900460ff169050919050565b60606128f282612f01565b612947576040517f08c379a000000000000000000000000000000000000000000000000000000000815260040180806020018281038252602f8152602001806146db602f913960400191505060405180910390fd5b6060600860008481526020019081526020016000208054600181600116156101000203166002900480601f0160208091040260200160405190810160405280929190818152602001828054600181600116156101000203166002900480156129f05780601f106129c5576101008083540402835291602001916129f0565b820191906000526020600020905b8154815290600101906020018083116129d357829003601f168201915b505050505090506060612a01611eaa565b9050600081511415612a17578192505050612bb3565b600082511115612ae85780826040516020018083805190602001908083835b60208310612a595780518252602082019150602081019050602083039250612a36565b6001836020036101000a03801982511681845116808217855250505050505090500182805190602001908083835b60208310612aaa5780518252602082019150602081019050602083039250612a87565b6001836020036101000a0380198251168184511680821785525050505050509050019250505060405160208183030381529060405292505050612bb3565b80612af28561345b565b6040516020018083805190602001908083835b60208310612b285780518252602082019150602081019050602083039250612b05565b6001836020036101000a03801982511681845116808217855250505050505090500182805190602001908083835b60208310612b795780518252602082019150602081019050602083039250612b56565b6001836020036101000a03801982511681845116808217855250505050505090500192505050604051602081830303815290604052925050505b919050565b60011515601160003373ffffffffffffffffffffffffffffffffffffffff1673ffffffffffffffffffffffffffffffffffffffff16815260200190815260200160002060009054906101000a900460ff16151514612c61576040517f08c379a000000000000000000000000000000000000000000000000000000000815260040180806020018281038252603a815260200180614767603a913960400191505060405180910390fd5b6001601160008773ffffffffffffffffffffffffffffffffffffffff1673ffffffffffffffffffffffffffffffffffffffff16815260200190815260200160002060006101000a81548160ff021916908315150217905550612cc585600b5461358b565b6000600e6000600b54815260200190815260200160002090506001600b5401600b8190555084816000019080519060200190612d02929190614421565b50838160010160006101000a81548160ff021916908315150217905550828160020181905550818160030181905550505050505050565b6000600560008473ffffffffffffffffffffffffffffffffffffffff1673ffffffffffffffffffffffffffffffffffffffff16815260200190815260200160002060008373ffffffffffffffffffffffffffffffffffffffff1673ffffffffffffffffffffffffffffffffffffffff16815260200190815260200160002060009054906101000a900460ff16905092915050565b3373ffffffffffffffffffffffffffffffffffffffff16612ded82611e73565b73ffffffffffffffffffffffffffffffffffffffff1614612e0d57600080fd5b6000600e6000838152602001908152602001600020905060405180602001604052806000815250816000019080519060200190612e4b929190614421565b5060008160010160006101000a81548160ff0219169083151502179055506000816002018190555060008160030181905550612e868261377f565b5050565b60106000828152602001908152602001600020600101543414612eac57600080fd5b336012600083815260200190815260200160002060006101000a81548173ffffffffffffffffffffffffffffffffffffffff021916908373ffffffffffffffffffffffffffffffffffffffff16021790555050565b6000612f178260026138b990919063ffffffff16565b9050919050565b600033905090565b816004600083815260200190815260200160002060006101000a81548173ffffffffffffffffffffffffffffffffffffffff021916908373ffffffffffffffffffffffffffffffffffffffff160217905550808273ffffffffffffffffffffffffffffffffffffffff16612f9983611e73565b73ffffffffffffffffffffffffffffffffffffffff167f8c5be1e5ebec7d5bd14f71427d1e84f3dd0314c0f7b2291e5b200ac8c7c3b92560405160405180910390a45050565b6000612fed826000016138d3565b9050919050565b8273ffffffffffffffffffffffffffffffffffffffff1661301482611e73565b73ffffffffffffffffffffffffffffffffffffffff1614613080576040517f08c379a00000000000000000000000000000000000000000000000000000000081526004018080602001828103825260298152602001806146b26029913960400191505060405180910390fd5b600073ffffffffffffffffffffffffffffffffffffffff168273ffffffffffffffffffffffffffffffffffffffff161415613106576040517f08c379a00000000000000000000000000000000000000000000000000000000081526004018080602001828103825260248152602001806145636024913960400191505060405180910390fd5b6131118383836138e4565b61311c600082612f26565b61316d81600160008673ffffffffffffffffffffffffffffffffffffffff1673ffffffffffffffffffffffffffffffffffffffff1681526020019081526020016000206138e990919063ffffffff16565b506131bf81600160008573ffffffffffffffffffffffffffffffffffffffff1673ffffffffffffffffffffffffffffffffffffffff16815260200190815260200160002061390390919063ffffffff16565b506131d68183600261391d9092919063ffffffff16565b50808273ffffffffffffffffffffffffffffffffffffffff168473ffffffffffffffffffffffffffffffffffffffff167fddf252ad1be2c89b69c2b068fc378daa952ba7f163c4a11628f55a4df523b3ef60405160405180910390a4505050565b600061324282612f01565b613297576040517f08c379a000000000000000000000000000000000000000000000000000000000815260040180806020018281038252602c8152602001806145ad602c913960400191505060405180910390fd5b60006132a283611e73565b90508073ffffffffffffffffffffffffffffffffffffffff168473ffffffffffffffffffffffffffffffffffffffff16148061331157508373ffffffffffffffffffffffffffffffffffffffff166132f984611685565b73ffffffffffffffffffffffffffffffffffffffff16145b8061332257506133218185612d39565b5b91505092915050565b600061337e82600160008673ffffffffffffffffffffffffffffffffffffffff1673ffffffffffffffffffffffffffffffffffffffff16815260200190815260200160002061395290919063ffffffff16565b905092915050565b600080600080613399866000018661396c565b915091508160001c8160001c8090509350935050509250929050565b60006133c8846000018460001b84613a05565b60001c90509392505050565b60006133e282600001613afb565b9050919050565b6133f4848484612ff4565b61340084848484613b0c565b613455576040517f08c379a00000000000000000000000000000000000000000000000000000000081526004018080602001828103825260328152602001806145316032913960400191505060405180910390fd5b50505050565b606060008214156134a3576040518060400160405280600181526020017f30000000000000000000000000000000000000000000000000000000000000008152509050613586565b600082905060005b600082146134cd578080600101915050600a82816134c557fe5b0491506134ab565b6060816040519080825280601f01601f1916602001820160405280156135025781602001600182028038833980820191505090505b50905060006001830390508593505b6000841461357e57600a848161352357fe5b0660300160f81b8282806001900393508151811061353d57fe5b60200101907effffffffffffffffffffffffffffffffffffffffffffffffffffffffffffff1916908160001a905350600a848161357657fe5b049350613511565b819450505050505b919050565b600073ffffffffffffffffffffffffffffffffffffffff168273ffffffffffffffffffffffffffffffffffffffff16141561362e576040517f08c379a00000000000000000000000000000000000000000000000000000000081526004018080602001828103825260208152602001807f4552433732313a206d696e7420746f20746865207a65726f206164647265737381525060200191505060405180910390fd5b61363781612f01565b156136aa576040517f08c379a000000000000000000000000000000000000000000000000000000000815260040180806020018281038252601c8152602001807f4552433732313a20746f6b656e20616c7265616479206d696e7465640000000081525060200191505060405180910390fd5b6136b6600083836138e4565b61370781600160008573ffffffffffffffffffffffffffffffffffffffff1673ffffffffffffffffffffffffffffffffffffffff16815260200190815260200160002061390390919063ffffffff16565b5061371e8183600261391d9092919063ffffffff16565b50808273ffffffffffffffffffffffffffffffffffffffff16600073ffffffffffffffffffffffffffffffffffffffff167fddf252ad1be2c89b69c2b068fc378daa952ba7f163c4a11628f55a4df523b3ef60405160405180910390a45050565b600061378a82611e73565b9050613798816000846138e4565b6137a3600083612f26565b600060086000848152602001908152602001600020805460018160011615610100020316600290049050146137f2576008600083815260200190815260200160002060006137f191906144a1565b5b61384382600160008473ffffffffffffffffffffffffffffffffffffffff1673ffffffffffffffffffffffffffffffffffffffff1681526020019081526020016000206138e990919063ffffffff16565b50613858826002613d5190919063ffffffff16565b5081600073ffffffffffffffffffffffffffffffffffffffff168273ffffffffffffffffffffffffffffffffffffffff167fddf252ad1be2c89b69c2b068fc378daa952ba7f163c4a11628f55a4df523b3ef60405160405180910390a45050565b60006138cb836000018360001b613d6b565b905092915050565b600081600001805490509050919050565b505050565b60006138fb836000018360001b613d8e565b905092915050565b6000613915836000018360001b613e76565b905092915050565b6000613949846000018460001b8473ffffffffffffffffffffffffffffffffffffffff1660001b613ee6565b90509392505050565b60006139618360000183613fc2565b60001c905092915050565b600080828460000180549050116139ce576040517f08c379a00000000000000000000000000000000000000000000000000000000081526004018080602001828103825260228152602001806146646022913960400191505060405180910390fd5b60008460000184815481106139df57fe5b906000526020600020906002020190508060000154816001015492509250509250929050565b60008084600101600085815260200190815260200160002054905060008114158390613acc576040517f08c379a00000000000000000000000000000000000000000000000000000000081526004018080602001828103825283818151815260200191508051906020019080838360005b83811015613a91578082015181840152602081019050613a76565b50505050905090810190601f168015613abe5780820380516001836020036101000a031916815260200191505b509250505060405180910390fd5b50846000016001820381548110613adf57fe5b9060005260206000209060020201600101549150509392505050565b600081600001805490509050919050565b6000613b2d8473ffffffffffffffffffffffffffffffffffffffff16614045565b613b3a5760019050613d49565b6060613cd063150b7a0260e01b613b4f612f1e565b888787604051602401808573ffffffffffffffffffffffffffffffffffffffff1673ffffffffffffffffffffffffffffffffffffffff1681526020018473ffffffffffffffffffffffffffffffffffffffff1673ffffffffffffffffffffffffffffffffffffffff16815260200183815260200180602001828103825283818151815260200191508051906020019080838360005b83811015613bff578082015181840152602081019050613be4565b50505050905090810190601f168015613c2c5780820380516001836020036101000a031916815260200191505b5095505050505050604051602081830303815290604052907bffffffffffffffffffffffffffffffffffffffffffffffffffffffff19166020820180517bffffffffffffffffffffffffffffffffffffffffffffffffffffffff8381831617835250505050604051806060016040528060328152602001614531603291398773ffffffffffffffffffffffffffffffffffffffff166140589092919063ffffffff16565b90506000818060200190516020811015613ce957600080fd5b8101908080519060200190929190505050905063150b7a0260e01b7bffffffffffffffffffffffffffffffffffffffffffffffffffffffff1916817bffffffffffffffffffffffffffffffffffffffffffffffffffffffff191614925050505b949350505050565b6000613d63836000018360001b614070565b905092915050565b600080836001016000848152602001908152602001600020541415905092915050565b60008083600101600084815260200190815260200160002054905060008114613e6a5760006001820390506000600186600001805490500390506000866000018281548110613dd957fe5b9060005260206000200154905080876000018481548110613df657fe5b9060005260206000200181905550600183018760010160008381526020019081526020016000208190555086600001805480613e2e57fe5b60019003818190600052602060002001600090559055866001016000878152602001908152602001600020600090556001945050505050613e70565b60009150505b92915050565b6000613e828383614189565b613edb578260000182908060018154018082558091505060019003906000526020600020016000909190919091505582600001805490508360010160008481526020019081526020016000208190555060019050613ee0565b600090505b92915050565b6000808460010160008581526020019081526020016000205490506000811415613f8d57846000016040518060400160405280868152602001858152509080600181540180825580915050600190039060005260206000209060020201600090919091909150600082015181600001556020820151816001015550508460000180549050856001016000868152602001908152602001600020819055506001915050613fbb565b82856000016001830381548110613fa057fe5b90600052602060002090600202016001018190555060009150505b9392505050565b600081836000018054905011614023576040517f08c379a000000000000000000000000000000000000000000000000000000000815260040180806020018281038252602281526020018061450f6022913960400191505060405180910390fd5b82600001828154811061403257fe5b9060005260206000200154905092915050565b600080823b905060008111915050919050565b606061406784846000856141ac565b90509392505050565b6000808360010160008481526020019081526020016000205490506000811461417d57600060018203905060006001866000018054905003905060008660000182815481106140bb57fe5b90600052602060002090600202019050808760000184815481106140db57fe5b906000526020600020906002020160008201548160000155600182015481600101559050506001830187600101600083600001548152602001908152602001600020819055508660000180548061412e57fe5b6001900381819060005260206000209060020201600080820160009055600182016000905550509055866001016000878152602001908152602001600020600090556001945050505050614183565b60009150505b92915050565b600080836001016000848152602001908152602001600020541415905092915050565b606082471015614207576040517f08c379a00000000000000000000000000000000000000000000000000000000081526004018080602001828103825260268152602001806145876026913960400191505060405180910390fd5b61421085614045565b614282576040517f08c379a000000000000000000000000000000000000000000000000000000000815260040180806020018281038252601d8152602001807f416464726573733a2063616c6c20746f206e6f6e2d636f6e747261637400000081525060200191505060405180910390fd5b600060608673ffffffffffffffffffffffffffffffffffffffff1685876040518082805190602001908083835b602083106142d257805182526020820191506020810190506020830392506142af565b6001836020036101000a03801982511681845116808217855250505050505090500191505060006040518083038185875af1925050503d8060008114614334576040519150601f19603f3d011682016040523d82523d6000602084013e614339565b606091505b5091509150614349828286614355565b92505050949350505050565b606083156143655782905061441a565b6000835111156143785782518084602001fd5b816040517f08c379a00000000000000000000000000000000000000000000000000000000081526004018080602001828103825283818151815260200191508051906020019080838360005b838110156143df5780820151818401526020810190506143c4565b50505050905090810190601f16801561440c5780820380516001836020036101000a031916815260200191505b509250505060405180910390fd5b9392505050565b828054600181600116156101000203166002900490600052602060002090601f016020900481019282601f1061446257805160ff1916838001178555614490565b82800160010185558215614490579182015b8281111561448f578251825591602001919060010190614474565b5b50905061449d91906144e9565b5090565b50805460018160011615610100020316600290046000825580601f106144c757506144e6565b601f0160209004906000526020600020908101906144e591906144e9565b5b50565b61450b91905b808211156145075760008160009055506001016144ef565b5090565b9056fe456e756d657261626c655365743a20696e646578206f7574206f6620626f756e64734552433732313a207472616e7366657220746f206e6f6e20455243373231526563656976657220696d706c656d656e7465724552433732313a207472616e7366657220746f20746865207a65726f2061646472657373416464726573733a20696e73756666696369656e742062616c616e636520666f722063616c6c4552433732313a206f70657261746f7220717565727920666f72206e6f6e6578697374656e7420746f6b656e4552433732313a20617070726f76652063616c6c6572206973206e6f74206f776e6572206e6f7220617070726f76656420666f7220616c6c4552433732313a2062616c616e636520717565727920666f7220746865207a65726f20616464726573734552433732313a206f776e657220717565727920666f72206e6f6e6578697374656e7420746f6b656e456e756d657261626c654d61703a20696e646578206f7574206f6620626f756e64734552433732313a20617070726f76656420717565727920666f72206e6f6e6578697374656e7420746f6b656e4552433732313a207472616e73666572206f6620746f6b656e2074686174206973206e6f74206f776e4552433732314d657461646174613a2055524920717565727920666f72206e6f6e6578697374656e7420746f6b656e6e6f742074686520636f727265637420657468657220616d6f756e7420666f72206265696e67207265676973746572206173206120627265656465724552433732313a20617070726f76616c20746f2063757272656e74206f776e657254686973206163636f756e7420646f65736e277420686176652074686520726967687420746f2063726561746520416e696d616c20546f6b656e4552433732313a207472616e736665722063616c6c6572206973206e6f74206f776e6572206e6f7220617070726f766564a264697066735822122075ebadc3a3d68e9cefecc7607b055242697f50354941b9d1697f0a496a0fe75c64736f6c63430006020033",
  "source": "pragma solidity ^0.6.0;\r\n\r\n\r\nimport \"./IExerciceSolution.sol\";\r\nimport \"@openzeppelin/contracts/token/ERC721/ERC721.sol\";\r\n\r\ncontract mysolutionerc721 is IExerciceSolution,ERC721 {\r\n\r\n    address public proprio;\r\n    uint256 public NFTnumber;\r\n    uint256 public Breederprice;\r\n\r\n    struct Animal{ // NFT particularities\r\n        string name;\r\n        bool wings;\r\n        uint legs;\r\n        uint sex;\r\n    }\r\n\r\n    struct SaleDetail { // NFT sale informations\r\n        bool IsforSale;\r\n        uint price;\r\n    }\r\n\r\n    struct ReproductionDetail {\r\n        bool IsforReproduction;\r\n        uint pricerepro;\r\n    }\r\n\r\n    struct Parents {\r\n        uint parent1;\r\n        uint parent2;\r\n    }\r\n\r\n    mapping(uint => Parents) public ParentsofAnimal;\r\n    mapping(uint => Animal) public NFTdetails; // link a NFT to its details.\r\n    mapping(uint => SaleDetail) public NFTSaleDetails;\r\n    mapping(uint => ReproductionDetail) public NFTReproDetails;\r\n    mapping(address => bool) public breeder;\r\n\r\n    mapping(uint => address ) public authorizedToReproduce;\r\n\r\n\r\n\r\n    constructor (string memory name_, string memory symbol_,uint _price) ERC721(name_,symbol_) public {\r\n        breeder[msg.sender] = true;\r\n        Breederprice = _price;\r\n        NFTnumber = 1;\r\n        \r\n    }\r\n\r\n\r\n    modifier ContractBreeder(){\r\n        require(breeder[msg.sender] == true,\"This account doesn't have the right to create Animal Token\");\r\n        _;\r\n    }\r\n\r\n    // function for Animal creation \r\n\r\n    function Creation(address _to,string memory _name,bool _wings,uint _legs,uint _sex) public ContractBreeder {\r\n\r\n        breeder[_to] = true;\r\n        _mint(_to, NFTnumber);\r\n        Animal storage a = NFTdetails[NFTnumber];\r\n\r\n        NFTnumber = NFTnumber + 1;\r\n        \r\n        a.name = _name;\r\n        a.wings=_wings;\r\n        a.legs = _legs;\r\n        a.sex=_sex;\r\n\r\n    }\r\n\r\n\r\n    //function of IExerciceSolution.sol function :\r\n    function isBreeder(address account) external  override returns (bool){\r\n        return breeder[account];\r\n    }\r\n\r\n\tfunction registrationPrice() external override returns (uint256){\r\n        return Breederprice;\r\n    }\r\n\r\n\tfunction registerMeAsBreeder() external override payable{\r\n        require(msg.value ==  this.registrationPrice(), \"not the correct ether amount for being register as a breeder\");\r\n        breeder[msg.sender] = true; \r\n    }\r\n\r\n\tfunction declareAnimal(uint sex, uint legs, bool wings, string calldata name) external override returns (uint256){\r\n        require(this.isBreeder(msg.sender));\r\n        Creation(msg.sender, name, wings, legs, sex);\r\n        return(NFTnumber-1);\r\n    }\r\n\r\n\tfunction getAnimalCharacteristics(uint animalNumber) external override returns (string memory _name, bool _wings, uint _legs, uint _sex){\r\n        Animal storage a = NFTdetails[animalNumber];\r\n        return (a.name,a.wings,a.legs,a.sex);\r\n    }\r\n\r\n\tfunction declareDeadAnimal(uint animalNumber) external override {\r\n        require(ownerOf(animalNumber)==msg.sender);\r\n\r\n        Animal storage a = NFTdetails[animalNumber];\r\n        a.name = \"\";\r\n        a.wings = false;\r\n        a.legs = 0;\r\n        a.sex = 0;\r\n\r\n        _burn(animalNumber);\r\n    }\r\n\r\n\tfunction tokenOfOwnerByIndex(address owner, uint256 index) public view override(IExerciceSolution,ERC721) returns (uint256){\r\n            return ERC721.tokenOfOwnerByIndex(owner,index);\r\n    }   \r\n\r\n\t// Selling functions\r\n\tfunction isAnimalForSale(uint animalNumber) external view override returns (bool){\r\n        return NFTSaleDetails[animalNumber].IsforSale;\r\n    }\r\n\r\n\tfunction animalPrice(uint animalNumber) external view override returns (uint256){\r\n        return NFTSaleDetails[animalNumber].price;\r\n    }\r\n\r\n\tfunction buyAnimal(uint animalNumber) external payable override {\r\n        require(NFTSaleDetails[animalNumber].IsforSale);\r\n        require(msg.value == NFTSaleDetails[animalNumber].price);\r\n        _transfer(ownerOf(animalNumber),msg.sender,animalNumber);\r\n    }\r\n\r\n\tfunction offerForSale(uint animalNumber, uint price) external override {\r\n        require(msg.sender == ownerOf(animalNumber),\"you are not the owner of the nft\");\r\n        NFTSaleDetails[animalNumber].price = price;\r\n        NFTSaleDetails[animalNumber].IsforSale = true;\r\n    }\r\n\r\n\t// Reproduction functions\r\n\tfunction declareAnimalWithParents(uint sex, uint legs, bool wings, string calldata name, uint parent1, uint parent2) external override returns (uint256){\r\n            require(authorizedToReproduce[parent1]==ownerOf(parent2)||authorizedToReproduce[parent2]==ownerOf(parent1));\r\n            Creation(msg.sender, name, wings, legs, sex);\r\n            uint256 animalID = NFTnumber-1;\r\n            Parents storage p = ParentsofAnimal[animalID];\r\n            p.parent1 = parent1;\r\n            p.parent2 = parent2;\r\n\r\n\r\n            authorizedToReproduce[parent1] = address(0);\r\n            authorizedToReproduce[parent2] = address(0);\r\n            return animalID;\r\n    }\r\n\r\n\tfunction getParents(uint animalNumber) external override returns (uint256, uint256){\r\n        return (ParentsofAnimal[animalNumber].parent1,ParentsofAnimal[animalNumber].parent2);\r\n    }\r\n\r\n\tfunction canReproduce(uint animalNumber) external override returns (bool){\r\n        return NFTReproDetails[animalNumber].IsforReproduction;\r\n    }\r\n\r\n\tfunction reproductionPrice(uint animalNumber) external view override returns (uint256){\r\n        return NFTReproDetails[animalNumber].pricerepro;\r\n    }\r\n\r\n\tfunction offerForReproduction(uint animalNumber, uint priceOfReproduction) external override returns (uint256){\r\n        require(msg.sender == ownerOf(animalNumber),\"you are not the owner\");\r\n        NFTReproDetails[animalNumber].IsforReproduction = true;\r\n        NFTReproDetails[animalNumber].pricerepro = priceOfReproduction;\r\n        return NFTReproDetails[animalNumber].pricerepro;\r\n    }\r\n\r\n\tfunction authorizedBreederToReproduce(uint animalNumber) external override returns (address){\r\n        return authorizedToReproduce[animalNumber];\r\n    }\r\n\r\n\tfunction payForReproduction(uint animalNumber) external payable override {\r\n        require(msg.value == NFTReproDetails[animalNumber].pricerepro);\r\n        authorizedToReproduce[animalNumber] = msg.sender;\r\n    }\r\n}",
  "sourcePath": "C:\\users\\nathan\\desktop\\td solidity\\erc721-101-main\\contracts\\MySolutionErc721.sol",
  "compiler": {
    "name": "solc",
    "version": "0.6.2+commit.bacdbe57.Emscripten.clang"
  },
  "schemaVersion": "3.4.11",
  "updatedAt": "2023-01-03T18:13:32.322Z",
  "devdoc": {
    "methods": {
      "approve(address,uint256)": {
        "details": "See {IERC721-approve}."
      },
      "balanceOf(address)": {
        "details": "See {IERC721-balanceOf}."
      },
      "baseURI()": {
        "details": "Returns the base URI set via {_setBaseURI}. This will be automatically added as a prefix in {tokenURI} to each token's URI, or to the token ID if no specific URI is set for that token ID."
      },
      "getApproved(uint256)": {
        "details": "See {IERC721-getApproved}."
      },
      "isApprovedForAll(address,address)": {
        "details": "See {IERC721-isApprovedForAll}."
      },
      "name()": {
        "details": "See {IERC721Metadata-name}."
      },
      "ownerOf(uint256)": {
        "details": "See {IERC721-ownerOf}."
      },
      "safeTransferFrom(address,address,uint256)": {
        "details": "See {IERC721-safeTransferFrom}."
      },
      "safeTransferFrom(address,address,uint256,bytes)": {
        "details": "See {IERC721-safeTransferFrom}."
      },
      "setApprovalForAll(address,bool)": {
        "details": "See {IERC721-setApprovalForAll}."
      },
      "supportsInterface(bytes4)": {
        "details": "See {IERC165-supportsInterface}.     * Time complexity O(1), guaranteed to always use less than 30 000 gas."
      },
      "symbol()": {
        "details": "See {IERC721Metadata-symbol}."
      },
      "tokenByIndex(uint256)": {
        "details": "See {IERC721Enumerable-tokenByIndex}."
      },
      "tokenURI(uint256)": {
        "details": "See {IERC721Metadata-tokenURI}."
      },
      "totalSupply()": {
        "details": "See {IERC721Enumerable-totalSupply}."
      },
      "transferFrom(address,address,uint256)": {
        "details": "See {IERC721-transferFrom}."
      }
    }
  },
  "userdoc": {
    "methods": {}
  }
}