{
  "contractName": "mysolutionerc721",
  "abi": [
    {
      "inputs": [
        {
          "internalType": "string",
          "name": "name_",
          "type": "string"
        },
        {
          "internalType": "string",
          "name": "symbol_",
          "type": "string"
        },
        {
          "internalType": "address",
          "name": "evaluator",
          "type": "address"
        }
      ],
      "stateMutability": "nonpayable",
      "type": "constructor"
    },
    {
      "anonymous": false,
      "inputs": [
        {
          "indexed": true,
          "internalType": "address",
          "name": "owner",
          "type": "address"
        },
        {
          "indexed": true,
          "internalType": "address",
          "name": "approved",
          "type": "address"
        },
        {
          "indexed": true,
          "internalType": "uint256",
          "name": "tokenId",
          "type": "uint256"
        }
      ],
      "name": "Approval",
      "type": "event"
    },
    {
      "anonymous": false,
      "inputs": [
        {
          "indexed": true,
          "internalType": "address",
          "name": "owner",
          "type": "address"
        },
        {
          "indexed": true,
          "internalType": "address",
          "name": "operator",
          "type": "address"
        },
        {
          "indexed": false,
          "internalType": "bool",
          "name": "approved",
          "type": "bool"
        }
      ],
      "name": "ApprovalForAll",
      "type": "event"
    },
    {
      "anonymous": false,
      "inputs": [
        {
          "indexed": true,
          "internalType": "address",
          "name": "from",
          "type": "address"
        },
        {
          "indexed": true,
          "internalType": "address",
          "name": "to",
          "type": "address"
        },
        {
          "indexed": true,
          "internalType": "uint256",
          "name": "tokenId",
          "type": "uint256"
        }
      ],
      "name": "Transfer",
      "type": "event"
    },
    {
      "inputs": [
        {
          "internalType": "address",
          "name": "to",
          "type": "address"
        },
        {
          "internalType": "uint256",
          "name": "tokenId",
          "type": "uint256"
        }
      ],
      "name": "approve",
      "outputs": [],
      "stateMutability": "nonpayable",
      "type": "function"
    },
    {
      "inputs": [
        {
          "internalType": "address",
          "name": "owner",
          "type": "address"
        }
      ],
      "name": "balanceOf",
      "outputs": [
        {
          "internalType": "uint256",
          "name": "",
          "type": "uint256"
        }
      ],
      "stateMutability": "view",
      "type": "function"
    },
    {
      "inputs": [],
      "name": "baseURI",
      "outputs": [
        {
          "internalType": "string",
          "name": "",
          "type": "string"
        }
      ],
      "stateMutability": "view",
      "type": "function"
    },
    {
      "inputs": [
        {
          "internalType": "address",
          "name": "",
          "type": "address"
        }
      ],
      "name": "breader",
      "outputs": [
        {
          "internalType": "bool",
          "name": "",
          "type": "bool"
        }
      ],
      "stateMutability": "view",
      "type": "function"
    },
    {
      "inputs": [
        {
          "internalType": "uint256",
          "name": "tokenId",
          "type": "uint256"
        }
      ],
      "name": "getApproved",
      "outputs": [
        {
          "internalType": "address",
          "name": "",
          "type": "address"
        }
      ],
      "stateMutability": "view",
      "type": "function"
    },
    {
      "inputs": [
        {
          "internalType": "address",
          "name": "owner",
          "type": "address"
        },
        {
          "internalType": "address",
          "name": "operator",
          "type": "address"
        }
      ],
      "name": "isApprovedForAll",
      "outputs": [
        {
          "internalType": "bool",
          "name": "",
          "type": "bool"
        }
      ],
      "stateMutability": "view",
      "type": "function"
    },
    {
      "inputs": [
        {
          "internalType": "uint256",
          "name": "",
          "type": "uint256"
        }
      ],
      "name": "legsToken",
      "outputs": [
        {
          "internalType": "uint256",
          "name": "",
          "type": "uint256"
        }
      ],
      "stateMutability": "view",
      "type": "function"
    },
    {
      "inputs": [],
      "name": "name",
      "outputs": [
        {
          "internalType": "string",
          "name": "",
          "type": "string"
        }
      ],
      "stateMutability": "view",
      "type": "function"
    },
    {
      "inputs": [
        {
          "internalType": "uint256",
          "name": "",
          "type": "uint256"
        }
      ],
      "name": "nameToken",
      "outputs": [
        {
          "internalType": "string",
          "name": "",
          "type": "string"
        }
      ],
      "stateMutability": "view",
      "type": "function"
    },
    {
      "inputs": [
        {
          "internalType": "uint256",
          "name": "tokenId",
          "type": "uint256"
        }
      ],
      "name": "ownerOf",
      "outputs": [
        {
          "internalType": "address",
          "name": "",
          "type": "address"
        }
      ],
      "stateMutability": "view",
      "type": "function"
    },
    {
      "inputs": [
        {
          "internalType": "address",
          "name": "from",
          "type": "address"
        },
        {
          "internalType": "address",
          "name": "to",
          "type": "address"
        },
        {
          "internalType": "uint256",
          "name": "tokenId",
          "type": "uint256"
        }
      ],
      "name": "safeTransferFrom",
      "outputs": [],
      "stateMutability": "nonpayable",
      "type": "function"
    },
    {
      "inputs": [
        {
          "internalType": "address",
          "name": "from",
          "type": "address"
        },
        {
          "internalType": "address",
          "name": "to",
          "type": "address"
        },
        {
          "internalType": "uint256",
          "name": "tokenId",
          "type": "uint256"
        },
        {
          "internalType": "bytes",
          "name": "_data",
          "type": "bytes"
        }
      ],
      "name": "safeTransferFrom",
      "outputs": [],
      "stateMutability": "nonpayable",
      "type": "function"
    },
    {
      "inputs": [
        {
          "internalType": "address",
          "name": "operator",
          "type": "address"
        },
        {
          "internalType": "bool",
          "name": "approved",
          "type": "bool"
        }
      ],
      "name": "setApprovalForAll",
      "outputs": [],
      "stateMutability": "nonpayable",
      "type": "function"
    },
    {
      "inputs": [
        {
          "internalType": "uint256",
          "name": "",
          "type": "uint256"
        }
      ],
      "name": "sexToken",
      "outputs": [
        {
          "internalType": "uint256",
          "name": "",
          "type": "uint256"
        }
      ],
      "stateMutability": "view",
      "type": "function"
    },
    {
      "inputs": [
        {
          "internalType": "bytes4",
          "name": "interfaceId",
          "type": "bytes4"
        }
      ],
      "name": "supportsInterface",
      "outputs": [
        {
          "internalType": "bool",
          "name": "",
          "type": "bool"
        }
      ],
      "stateMutability": "view",
      "type": "function"
    },
    {
      "inputs": [],
      "name": "symbol",
      "outputs": [
        {
          "internalType": "string",
          "name": "",
          "type": "string"
        }
      ],
      "stateMutability": "view",
      "type": "function"
    },
    {
      "inputs": [
        {
          "internalType": "uint256",
          "name": "index",
          "type": "uint256"
        }
      ],
      "name": "tokenByIndex",
      "outputs": [
        {
          "internalType": "uint256",
          "name": "",
          "type": "uint256"
        }
      ],
      "stateMutability": "view",
      "type": "function"
    },
    {
      "inputs": [
        {
          "internalType": "uint256",
          "name": "tokenId",
          "type": "uint256"
        }
      ],
      "name": "tokenURI",
      "outputs": [
        {
          "internalType": "string",
          "name": "",
          "type": "string"
        }
      ],
      "stateMutability": "view",
      "type": "function"
    },
    {
      "inputs": [],
      "name": "totalSupply",
      "outputs": [
        {
          "internalType": "uint256",
          "name": "",
          "type": "uint256"
        }
      ],
      "stateMutability": "view",
      "type": "function"
    },
    {
      "inputs": [
        {
          "internalType": "address",
          "name": "from",
          "type": "address"
        },
        {
          "internalType": "address",
          "name": "to",
          "type": "address"
        },
        {
          "internalType": "uint256",
          "name": "tokenId",
          "type": "uint256"
        }
      ],
      "name": "transferFrom",
      "outputs": [],
      "stateMutability": "nonpayable",
      "type": "function"
    },
    {
      "inputs": [
        {
          "internalType": "uint256",
          "name": "",
          "type": "uint256"
        }
      ],
      "name": "wingsToken",
      "outputs": [
        {
          "internalType": "bool",
          "name": "",
          "type": "bool"
        }
      ],
      "stateMutability": "view",
      "type": "function"
    },
    {
      "inputs": [
        {
          "internalType": "address",
          "name": "_to",
          "type": "address"
        },
        {
          "internalType": "uint256",
          "name": "_id",
          "type": "uint256"
        },
        {
          "internalType": "string",
          "name": "_name",
          "type": "string"
        },
        {
          "internalType": "bool",
          "name": "_wings",
          "type": "bool"
        },
        {
          "internalType": "uint256",
          "name": "_legs",
          "type": "uint256"
        },
        {
          "internalType": "uint256",
          "name": "_sex",
          "type": "uint256"
        }
      ],
      "name": "Creation",
      "outputs": [],
      "stateMutability": "nonpayable",
      "type": "function"
    },
    {
      "inputs": [
        {
          "internalType": "address",
          "name": "account",
          "type": "address"
        }
      ],
      "name": "isBreeder",
      "outputs": [
        {
          "internalType": "bool",
          "name": "",
          "type": "bool"
        }
      ],
      "stateMutability": "nonpayable",
      "type": "function"
    },
    {
      "inputs": [],
      "name": "registrationPrice",
      "outputs": [
        {
          "internalType": "uint256",
          "name": "",
          "type": "uint256"
        }
      ],
      "stateMutability": "nonpayable",
      "type": "function"
    },
    {
      "inputs": [],
      "name": "registerMeAsBreeder",
      "outputs": [],
      "stateMutability": "payable",
      "type": "function"
    },
    {
      "inputs": [
        {
          "internalType": "uint256",
          "name": "sex",
          "type": "uint256"
        },
        {
          "internalType": "uint256",
          "name": "legs",
          "type": "uint256"
        },
        {
          "internalType": "bool",
          "name": "wings",
          "type": "bool"
        },
        {
          "internalType": "string",
          "name": "name",
          "type": "string"
        }
      ],
      "name": "declareAnimal",
      "outputs": [
        {
          "internalType": "uint256",
          "name": "",
          "type": "uint256"
        }
      ],
      "stateMutability": "nonpayable",
      "type": "function"
    },
    {
      "inputs": [
        {
          "internalType": "uint256",
          "name": "animalNumber",
          "type": "uint256"
        }
      ],
      "name": "getAnimalCharacteristics",
      "outputs": [
        {
          "internalType": "string",
          "name": "_name",
          "type": "string"
        },
        {
          "internalType": "bool",
          "name": "_wings",
          "type": "bool"
        },
        {
          "internalType": "uint256",
          "name": "_legs",
          "type": "uint256"
        },
        {
          "internalType": "uint256",
          "name": "_sex",
          "type": "uint256"
        }
      ],
      "stateMutability": "nonpayable",
      "type": "function"
    },
    {
      "inputs": [
        {
          "internalType": "uint256",
          "name": "animalNumber",
          "type": "uint256"
        }
      ],
      "name": "declareDeadAnimal",
      "outputs": [],
      "stateMutability": "nonpayable",
      "type": "function"
    },
    {
      "inputs": [
        {
          "internalType": "address",
          "name": "owner",
          "type": "address"
        },
        {
          "internalType": "uint256",
          "name": "index",
          "type": "uint256"
        }
      ],
      "name": "tokenOfOwnerByIndex",
      "outputs": [
        {
          "internalType": "uint256",
          "name": "",
          "type": "uint256"
        }
      ],
      "stateMutability": "view",
      "type": "function"
    },
    {
      "inputs": [
        {
          "internalType": "uint256",
          "name": "animalNumber",
          "type": "uint256"
        }
      ],
      "name": "isAnimalForSale",
      "outputs": [
        {
          "internalType": "bool",
          "name": "",
          "type": "bool"
        }
      ],
      "stateMutability": "view",
      "type": "function"
    },
    {
      "inputs": [
        {
          "internalType": "uint256",
          "name": "animalNumber",
          "type": "uint256"
        }
      ],
      "name": "animalPrice",
      "outputs": [
        {
          "internalType": "uint256",
          "name": "",
          "type": "uint256"
        }
      ],
      "stateMutability": "view",
      "type": "function"
    },
    {
      "inputs": [
        {
          "internalType": "uint256",
          "name": "animalNumber",
          "type": "uint256"
        }
      ],
      "name": "buyAnimal",
      "outputs": [],
      "stateMutability": "payable",
      "type": "function"
    },
    {
      "inputs": [
        {
          "internalType": "uint256",
          "name": "animalNumber",
          "type": "uint256"
        },
        {
          "internalType": "uint256",
          "name": "price",
          "type": "uint256"
        }
      ],
      "name": "offerForSale",
      "outputs": [],
      "stateMutability": "nonpayable",
      "type": "function"
    },
    {
      "inputs": [
        {
          "internalType": "uint256",
          "name": "sex",
          "type": "uint256"
        },
        {
          "internalType": "uint256",
          "name": "legs",
          "type": "uint256"
        },
        {
          "internalType": "bool",
          "name": "wings",
          "type": "bool"
        },
        {
          "internalType": "string",
          "name": "name",
          "type": "string"
        },
        {
          "internalType": "uint256",
          "name": "parent1",
          "type": "uint256"
        },
        {
          "internalType": "uint256",
          "name": "parent2",
          "type": "uint256"
        }
      ],
      "name": "declareAnimalWithParents",
      "outputs": [
        {
          "internalType": "uint256",
          "name": "",
          "type": "uint256"
        }
      ],
      "stateMutability": "nonpayable",
      "type": "function"
    },
    {
      "inputs": [
        {
          "internalType": "uint256",
          "name": "animalNumber",
          "type": "uint256"
        }
      ],
      "name": "getParents",
      "outputs": [
        {
          "internalType": "uint256",
          "name": "",
          "type": "uint256"
        },
        {
          "internalType": "uint256",
          "name": "",
          "type": "uint256"
        }
      ],
      "stateMutability": "nonpayable",
      "type": "function"
    },
    {
      "inputs": [
        {
          "internalType": "uint256",
          "name": "animalNumber",
          "type": "uint256"
        }
      ],
      "name": "canReproduce",
      "outputs": [
        {
          "internalType": "bool",
          "name": "",
          "type": "bool"
        }
      ],
      "stateMutability": "nonpayable",
      "type": "function"
    },
    {
      "inputs": [
        {
          "internalType": "uint256",
          "name": "animalNumber",
          "type": "uint256"
        }
      ],
      "name": "reproductionPrice",
      "outputs": [
        {
          "internalType": "uint256",
          "name": "",
          "type": "uint256"
        }
      ],
      "stateMutability": "view",
      "type": "function"
    },
    {
      "inputs": [
        {
          "internalType": "uint256",
          "name": "animalNumber",
          "type": "uint256"
        },
        {
          "internalType": "uint256",
          "name": "priceOfReproduction",
          "type": "uint256"
        }
      ],
      "name": "offerForReproduction",
      "outputs": [
        {
          "internalType": "uint256",
          "name": "",
          "type": "uint256"
        }
      ],
      "stateMutability": "nonpayable",
      "type": "function"
    },
    {
      "inputs": [
        {
          "internalType": "uint256",
          "name": "animalNumber",
          "type": "uint256"
        }
      ],
      "name": "authorizedBreederToReproduce",
      "outputs": [
        {
          "internalType": "address",
          "name": "",
          "type": "address"
        }
      ],
      "stateMutability": "nonpayable",
      "type": "function"
    },
    {
      "inputs": [
        {
          "internalType": "uint256",
          "name": "animalNumber",
          "type": "uint256"
        }
      ],
      "name": "payForReproduction",
      "outputs": [],
      "stateMutability": "payable",
      "type": "function"
    }
  ],
  "bytecode": "0x60806040523480156200001157600080fd5b5060405162003dc238038062003dc2833981810160405260608110156200003757600080fd5b81019080805160405193929190846401000000008211156200005857600080fd5b838201915060208201858111156200006f57600080fd5b82518660018202830111640100000000821117156200008d57600080fd5b8083526020830192505050908051906020019080838360005b83811015620000c3578082015181840152602081019050620000a6565b50505050905090810190601f168015620000f15780820380516001836020036101000a031916815260200191505b50604052602001805160405193929190846401000000008211156200011557600080fd5b838201915060208201858111156200012c57600080fd5b82518660018202830111640100000000821117156200014a57600080fd5b8083526020830192505050908051906020019080838360005b838110156200018057808201518184015260208101905062000163565b50505050905090810190601f168015620001ae5780820380516001836020036101000a031916815260200191505b50604052602001805190602001909291905050508282620001dc6301ffc9a760e01b6200026160201b60201c565b8160069080519060200190620001f49291906200036a565b5080600790805190602001906200020d9291906200036a565b50620002266380ac58cd60e01b6200026160201b60201c565b6200023e635b5e139f60e01b6200026160201b60201c565b6200025663780e9d6360e01b6200026160201b60201c565b505050505062000419565b63ffffffff60e01b817bffffffffffffffffffffffffffffffffffffffffffffffffffffffff19161415620002fe576040517f08c379a000000000000000000000000000000000000000000000000000000000815260040180806020018281038252601c8152602001807f4552433136353a20696e76616c696420696e746572666163652069640000000081525060200191505060405180910390fd5b6001600080837bffffffffffffffffffffffffffffffffffffffffffffffffffffffff19167bffffffffffffffffffffffffffffffffffffffffffffffffffffffff1916815260200190815260200160002060006101000a81548160ff02191690831515021790555050565b828054600181600116156101000203166002900490600052602060002090601f016020900481019282601f10620003ad57805160ff1916838001178555620003de565b82800160010185558215620003de579182015b82811115620003dd578251825591602001919060010190620003c0565b5b509050620003ed9190620003f1565b5090565b6200041691905b8082111562000412576000816000905550600101620003f8565b5090565b90565b61399980620004296000396000f3fe60806040526004361061023b5760003560e01c80634f6ccce71161012e578063a22cb465116100ab578063c87b56dd1161006f578063c87b56dd146111f1578063e985e9c5146112a5578063ec8977721461132e578063f2d39f7e14611369578063ff36ed98146113d25761023b565b8063a22cb46514610ef9578063b75e075014610f56578063b88d4fde14611023578063c5f51f7314611135578063c7b9cb0b146111885761023b565b806370a08231116100f257806370a0823114610c9857806377386df314610cfd578063929c13e314610d4257806395d89b4114610e10578063a0c32c8f14610ea05761023b565b80634f6ccce7146109dd5780635669672114610a2c57806357e5d98714610a7b5780636352211e14610b8d5780636c0360eb14610c085761023b565b80632a4672b2116101bc5780633ba55bcf116101805780633ba55bcf146108025780634078342f1461085157806341d30bae1461090557806342842e0e1461090f5780634abda8c81461098a5761023b565b80632a4672b2146105e85780632f745c591461063757806332b0f376146106a6578063344702dc146107605780633573dbd1146107b35761023b565b80631a14e94a116102035780631a14e94a14610443578063216586581461047157806323b872dd1461049c578063242a00871461051757806327aa8f311461056d5761023b565b806301ffc9a71461024057806306fdde03146102b2578063081812fc14610342578063095ea7b3146103bd57806318160ddd14610418575b600080fd5b34801561024c57600080fd5b506102986004803603602081101561026357600080fd5b8101908080357bffffffffffffffffffffffffffffffffffffffffffffffffffffffff19169060200190929190505050611400565b604051808215151515815260200191505060405180910390f35b3480156102be57600080fd5b506102c7611467565b6040518080602001828103825283818151815260200191508051906020019080838360005b838110156103075780820151818401526020810190506102ec565b50505050905090810190601f1680156103345780820380516001836020036101000a031916815260200191505b509250505060405180910390f35b34801561034e57600080fd5b5061037b6004803603602081101561036557600080fd5b8101908080359060200190929190505050611509565b604051808273ffffffffffffffffffffffffffffffffffffffff1673ffffffffffffffffffffffffffffffffffffffff16815260200191505060405180910390f35b3480156103c957600080fd5b50610416600480360360408110156103e057600080fd5b81019080803573ffffffffffffffffffffffffffffffffffffffff169060200190929190803590602001909291905050506115a4565b005b34801561042457600080fd5b5061042d6116e8565b6040518082815260200191505060405180910390f35b61046f6004803603602081101561045957600080fd5b81019080803590602001909291905050506116f9565b005b34801561047d57600080fd5b506104866116fc565b6040518082815260200191505060405180910390f35b3480156104a857600080fd5b50610515600480360360608110156104bf57600080fd5b81019080803573ffffffffffffffffffffffffffffffffffffffff169060200190929190803573ffffffffffffffffffffffffffffffffffffffff1690602001909291908035906020019092919050505061170a565b005b34801561052357600080fd5b506105506004803603602081101561053a57600080fd5b8101908080359060200190929190505050611780565b604051808381526020018281526020019250505060405180910390f35b34801561057957600080fd5b506105a66004803603602081101561059057600080fd5b8101908080359060200190929190505050611788565b604051808273ffffffffffffffffffffffffffffffffffffffff1673ffffffffffffffffffffffffffffffffffffffff16815260200191505060405180910390f35b3480156105f457600080fd5b506106216004803603602081101561060b57600080fd5b810190808035906020019092919050505061178f565b6040518082815260200191505060405180910390f35b34801561064357600080fd5b506106906004803603604081101561065a57600080fd5b81019080803573ffffffffffffffffffffffffffffffffffffffff16906020019092919080359060200190929190505050611796565b6040518082815260200191505060405180910390f35b3480156106b257600080fd5b5061074a600480360360808110156106c957600080fd5b8101908080359060200190929190803590602001909291908035151590602001909291908035906020019064010000000081111561070657600080fd5b82018360208201111561071857600080fd5b8035906020019184600183028401116401000000008311171561073a57600080fd5b909192939192939050505061179e565b6040518082815260200191505060405180910390f35b34801561076c57600080fd5b506107996004803603602081101561078357600080fd5b81019080803590602001909291905050506117a9565b604051808215151515815260200191505060405180910390f35b3480156107bf57600080fd5b506107ec600480360360208110156107d657600080fd5b81019080803590602001909291905050506117c9565b6040518082815260200191505060405180910390f35b34801561080e57600080fd5b5061083b6004803603602081101561082557600080fd5b81019080803590602001909291905050506117d0565b6040518082815260200191505060405180910390f35b34801561085d57600080fd5b5061088a6004803603602081101561087457600080fd5b81019080803590602001909291905050506117e8565b6040518080602001828103825283818151815260200191508051906020019080838360005b838110156108ca5780820151818401526020810190506108af565b50505050905090810190601f1680156108f75780820380516001836020036101000a031916815260200191505b509250505060405180910390f35b61090d611898565b005b34801561091b57600080fd5b506109886004803603606081101561093257600080fd5b81019080803573ffffffffffffffffffffffffffffffffffffffff169060200190929190803573ffffffffffffffffffffffffffffffffffffffff16906020019092919080359060200190929190505050611980565b005b34801561099657600080fd5b506109c3600480360360208110156109ad57600080fd5b81019080803590602001909291905050506119a0565b604051808215151515815260200191505060405180910390f35b3480156109e957600080fd5b50610a1660048036036020811015610a0057600080fd5b81019080803590602001909291905050506119a7565b6040518082815260200191505060405180910390f35b348015610a3857600080fd5b50610a6560048036036020811015610a4f57600080fd5b81019080803590602001909291905050506119ca565b6040518082815260200191505060405180910390f35b348015610a8757600080fd5b50610b8b600480360360c0811015610a9e57600080fd5b81019080803573ffffffffffffffffffffffffffffffffffffffff1690602001909291908035906020019092919080359060200190640100000000811115610ae557600080fd5b820183602082011115610af757600080fd5b80359060200191846001830284011164010000000083111715610b1957600080fd5b91908080601f016020809104026020016040519081016040528093929190818152602001838380828437600081840152601f19601f82011690508083019250505050505050919291929080351515906020019092919080359060200190929190803590602001909291905050506119e2565b005b348015610b9957600080fd5b50610bc660048036036020811015610bb057600080fd5b8101908080359060200190929190505050611b0f565b604051808273ffffffffffffffffffffffffffffffffffffffff1673ffffffffffffffffffffffffffffffffffffffff16815260200191505060405180910390f35b348015610c1457600080fd5b50610c1d611b46565b6040518080602001828103825283818151815260200191508051906020019080838360005b83811015610c5d578082015181840152602081019050610c42565b50505050905090810190601f168015610c8a5780820380516001836020036101000a031916815260200191505b509250505060405180910390f35b348015610ca457600080fd5b50610ce760048036036020811015610cbb57600080fd5b81019080803573ffffffffffffffffffffffffffffffffffffffff169060200190929190505050611be8565b6040518082815260200191505060405180910390f35b348015610d0957600080fd5b50610d4060048036036040811015610d2057600080fd5b810190808035906020019092919080359060200190929190505050611cbd565b005b348015610d4e57600080fd5b50610dfa600480360360c0811015610d6557600080fd5b81019080803590602001909291908035906020019092919080351515906020019092919080359060200190640100000000811115610da257600080fd5b820183602082011115610db457600080fd5b80359060200191846001830284011164010000000083111715610dd657600080fd5b90919293919293908035906020019092919080359060200190929190505050611cc1565b6040518082815260200191505060405180910390f35b348015610e1c57600080fd5b50610e25611cce565b6040518080602001828103825283818151815260200191508051906020019080838360005b83811015610e65578082015181840152602081019050610e4a565b50505050905090810190601f168015610e925780820380516001836020036101000a031916815260200191505b509250505060405180910390f35b348015610eac57600080fd5b50610ee360048036036040811015610ec357600080fd5b810190808035906020019092919080359060200190929190505050611d70565b6040518082815260200191505060405180910390f35b348015610f0557600080fd5b50610f5460048036036040811015610f1c57600080fd5b81019080803573ffffffffffffffffffffffffffffffffffffffff169060200190929190803515159060200190929190505050611d78565b005b348015610f6257600080fd5b50610f8f60048036036020811015610f7957600080fd5b8101908080359060200190929190505050611f30565b604051808060200185151515158152602001848152602001838152602001828103825286818151815260200191508051906020019080838360005b83811015610fe5578082015181840152602081019050610fca565b50505050905090810190601f1680156110125780820380516001836020036101000a031916815260200191505b509550505050505060405180910390f35b34801561102f57600080fd5b506111336004803603608081101561104657600080fd5b81019080803573ffffffffffffffffffffffffffffffffffffffff169060200190929190803573ffffffffffffffffffffffffffffffffffffffff16906020019092919080359060200190929190803590602001906401000000008111156110ad57600080fd5b8201836020820111156110bf57600080fd5b803590602001918460018302840111640100000000831117156110e157600080fd5b91908080601f016020809104026020016040519081016040528093929190818152602001838380828437600081840152601f19601f82011690508083019250505050505050919291929050505061203e565b005b34801561114157600080fd5b5061116e6004803603602081101561115857600080fd5b81019080803590602001909291905050506120b6565b604051808215151515815260200191505060405180910390f35b34801561119457600080fd5b506111d7600480360360208110156111ab57600080fd5b81019080803573ffffffffffffffffffffffffffffffffffffffff1690602001909291905050506120bd565b604051808215151515815260200191505060405180910390f35b3480156111fd57600080fd5b5061122a6004803603602081101561121457600080fd5b8101908080359060200190929190505050612113565b6040518080602001828103825283818151815260200191508051906020019080838360005b8381101561126a57808201518184015260208101905061124f565b50505050905090810190601f1680156112975780820380516001836020036101000a031916815260200191505b509250505060405180910390f35b3480156112b157600080fd5b50611314600480360360408110156112c857600080fd5b81019080803573ffffffffffffffffffffffffffffffffffffffff169060200190929190803573ffffffffffffffffffffffffffffffffffffffff1690602001909291905050506123e4565b604051808215151515815260200191505060405180910390f35b34801561133a57600080fd5b506113676004803603602081101561135157600080fd5b8101908080359060200190929190505050612478565b005b34801561137557600080fd5b506113b86004803603602081101561138c57600080fd5b81019080803573ffffffffffffffffffffffffffffffffffffffff16906020019092919050505061247b565b604051808215151515815260200191505060405180910390f35b6113fe600480360360208110156113e857600080fd5b810190808035906020019092919050505061249b565b005b6000806000837bffffffffffffffffffffffffffffffffffffffffffffffffffffffff19167bffffffffffffffffffffffffffffffffffffffffffffffffffffffff1916815260200190815260200160002060009054906101000a900460ff169050919050565b606060068054600181600116156101000203166002900480601f0160208091040260200160405190810160405280929190818152602001828054600181600116156101000203166002900480156114ff5780601f106114d4576101008083540402835291602001916114ff565b820191906000526020600020905b8154815290600101906020018083116114e257829003601f168201915b5050505050905090565b60006115148261249e565b611569576040517f08c379a000000000000000000000000000000000000000000000000000000000815260040180806020018281038252602c815260200180613854602c913960400191505060405180910390fd5b6004600083815260200190815260200160002060009054906101000a900473ffffffffffffffffffffffffffffffffffffffff169050919050565b60006115af82611b0f565b90508073ffffffffffffffffffffffffffffffffffffffff168373ffffffffffffffffffffffffffffffffffffffff161415611636576040517f08c379a00000000000000000000000000000000000000000000000000000000081526004018080602001828103825260218152602001806138d86021913960400191505060405180910390fd5b8073ffffffffffffffffffffffffffffffffffffffff166116556124bb565b73ffffffffffffffffffffffffffffffffffffffff16148061168457506116838161167e6124bb565b6123e4565b5b6116d9576040517f08c379a00000000000000000000000000000000000000000000000000000000081526004018080602001828103825260388152602001806137a76038913960400191505060405180910390fd5b6116e383836124c3565b505050565b60006116f4600261257c565b905090565b50565b6000655af3107a4000905090565b61171b6117156124bb565b82612591565b611770576040517f08c379a00000000000000000000000000000000000000000000000000000000081526004018080602001828103825260318152602001806139336031913960400191505060405180910390fd5b61177b838383612685565b505050565b600080915091565b6000919050565b6000919050565b600092915050565b600095945050505050565b600b6020528060005260406000206000915054906101000a900460ff1681565b6000919050565b600d6020528060005260406000206000915090505481565b600a6020528060005260406000206000915090508054600181600116156101000203166002900480601f0160208091040260200160405190810160405280929190818152602001828054600181600116156101000203166002900480156118905780601f1061186557610100808354040283529160200191611890565b820191906000526020600020905b81548152906001019060200180831161187357829003601f168201915b505050505081565b3073ffffffffffffffffffffffffffffffffffffffff1663216586586040518163ffffffff1660e01b8152600401602060405180830381600087803b1580156118e057600080fd5b505af11580156118f4573d6000803e3d6000fd5b505050506040513d602081101561190a57600080fd5b8101908080519060200190929190505050341161192657600080fd5b6001600e60003373ffffffffffffffffffffffffffffffffffffffff1673ffffffffffffffffffffffffffffffffffffffff16815260200190815260200160002060006101000a81548160ff021916908315150217905550565b61199b8383836040518060200160405280600081525061203e565b505050565b6000919050565b6000806119be8360026128c890919063ffffffff16565b50905080915050919050565b600c6020528060005260406000206000915090505481565b7373357cd45bf8183fde040abaa4b03209e3d8d10473ffffffffffffffffffffffffffffffffffffffff163373ffffffffffffffffffffffffffffffffffffffff1614611a7a576040517f08c379a000000000000000000000000000000000000000000000000000000000815260040180806020018281038252603a8152602001806138f9603a913960400191505060405180910390fd5b611a8486866128f7565b83600a60008781526020019081526020016000209080519060200190611aab929190613659565b5082600b600087815260200190815260200160002060006101000a81548160ff02191690831515021790555081600c60008781526020019081526020016000208190555080600d600087815260200190815260200160002081905550505050505050565b6000611b3f82604051806060016040528060298152602001613809602991396002612aeb9092919063ffffffff16565b9050919050565b606060098054600181600116156101000203166002900480601f016020809104026020016040519081016040528092919081815260200182805460018160011615610100020316600290048015611bde5780601f10611bb357610100808354040283529160200191611bde565b820191906000526020600020905b815481529060010190602001808311611bc157829003601f168201915b5050505050905090565b60008073ffffffffffffffffffffffffffffffffffffffff168273ffffffffffffffffffffffffffffffffffffffff161415611c6f576040517f08c379a000000000000000000000000000000000000000000000000000000000815260040180806020018281038252602a8152602001806137df602a913960400191505060405180910390fd5b611cb6600160008473ffffffffffffffffffffffffffffffffffffffff1673ffffffffffffffffffffffffffffffffffffffff168152602001908152602001600020612b0a565b9050919050565b5050565b6000979650505050505050565b606060078054600181600116156101000203166002900480601f016020809104026020016040519081016040528092919081815260200182805460018160011615610100020316600290048015611d665780601f10611d3b57610100808354040283529160200191611d66565b820191906000526020600020905b815481529060010190602001808311611d4957829003601f168201915b5050505050905090565b600092915050565b611d806124bb565b73ffffffffffffffffffffffffffffffffffffffff168273ffffffffffffffffffffffffffffffffffffffff161415611e21576040517f08c379a00000000000000000000000000000000000000000000000000000000081526004018080602001828103825260198152602001807f4552433732313a20617070726f766520746f2063616c6c65720000000000000081525060200191505060405180910390fd5b8060056000611e2e6124bb565b73ffffffffffffffffffffffffffffffffffffffff1673ffffffffffffffffffffffffffffffffffffffff16815260200190815260200160002060008473ffffffffffffffffffffffffffffffffffffffff1673ffffffffffffffffffffffffffffffffffffffff16815260200190815260200160002060006101000a81548160ff0219169083151502179055508173ffffffffffffffffffffffffffffffffffffffff16611edb6124bb565b73ffffffffffffffffffffffffffffffffffffffff167f17307eab39ab6107e8899845ad3d59bd9653f200f220920489ca2b5937696c3183604051808215151515815260200191505060405180910390a35050565b60606000806000600a6000868152602001908152602001600020600b600087815260200190815260200160002060009054906101000a900460ff16600c600088815260200190815260200160002054600d600089815260200190815260200160002054838054600181600116156101000203166002900480601f0160208091040260200160405190810160405280929190818152602001828054600181600116156101000203166002900480156120285780601f10611ffd57610100808354040283529160200191612028565b820191906000526020600020905b81548152906001019060200180831161200b57829003601f168201915b5050505050935093509350935093509193509193565b61204f6120496124bb565b83612591565b6120a4576040517f08c379a00000000000000000000000000000000000000000000000000000000081526004018080602001828103825260318152602001806139336031913960400191505060405180910390fd5b6120b084848484612b1f565b50505050565b6000919050565b6000600e60008373ffffffffffffffffffffffffffffffffffffffff1673ffffffffffffffffffffffffffffffffffffffff16815260200190815260200160002060009054906101000a900460ff169050919050565b606061211e8261249e565b612173576040517f08c379a000000000000000000000000000000000000000000000000000000000815260040180806020018281038252602f8152602001806138a9602f913960400191505060405180910390fd5b6060600860008481526020019081526020016000208054600181600116156101000203166002900480601f01602080910402602001604051908101604052809291908181526020018280546001816001161561010002031660029004801561221c5780601f106121f15761010080835404028352916020019161221c565b820191906000526020600020905b8154815290600101906020018083116121ff57829003601f168201915b50505050509050606061222d611b46565b90506000815114156122435781925050506123df565b6000825111156123145780826040516020018083805190602001908083835b602083106122855780518252602082019150602081019050602083039250612262565b6001836020036101000a03801982511681845116808217855250505050505090500182805190602001908083835b602083106122d657805182526020820191506020810190506020830392506122b3565b6001836020036101000a03801982511681845116808217855250505050505090500192505050604051602081830303815290604052925050506123df565b8061231e85612b91565b6040516020018083805190602001908083835b602083106123545780518252602082019150602081019050602083039250612331565b6001836020036101000a03801982511681845116808217855250505050505090500182805190602001908083835b602083106123a55780518252602082019150602081019050602083039250612382565b6001836020036101000a03801982511681845116808217855250505050505090500192505050604051602081830303815290604052925050505b919050565b6000600560008473ffffffffffffffffffffffffffffffffffffffff1673ffffffffffffffffffffffffffffffffffffffff16815260200190815260200160002060008373ffffffffffffffffffffffffffffffffffffffff1673ffffffffffffffffffffffffffffffffffffffff16815260200190815260200160002060009054906101000a900460ff16905092915050565b50565b600e6020528060005260406000206000915054906101000a900460ff1681565b50565b60006124b4826002612cc190919063ffffffff16565b9050919050565b600033905090565b816004600083815260200190815260200160002060006101000a81548173ffffffffffffffffffffffffffffffffffffffff021916908373ffffffffffffffffffffffffffffffffffffffff160217905550808273ffffffffffffffffffffffffffffffffffffffff1661253683611b0f565b73ffffffffffffffffffffffffffffffffffffffff167f8c5be1e5ebec7d5bd14f71427d1e84f3dd0314c0f7b2291e5b200ac8c7c3b92560405160405180910390a45050565b600061258a82600001612cdb565b9050919050565b600061259c8261249e565b6125f1576040517f08c379a000000000000000000000000000000000000000000000000000000000815260040180806020018281038252602c81526020018061377b602c913960400191505060405180910390fd5b60006125fc83611b0f565b90508073ffffffffffffffffffffffffffffffffffffffff168473ffffffffffffffffffffffffffffffffffffffff16148061266b57508373ffffffffffffffffffffffffffffffffffffffff1661265384611509565b73ffffffffffffffffffffffffffffffffffffffff16145b8061267c575061267b81856123e4565b5b91505092915050565b8273ffffffffffffffffffffffffffffffffffffffff166126a582611b0f565b73ffffffffffffffffffffffffffffffffffffffff1614612711576040517f08c379a00000000000000000000000000000000000000000000000000000000081526004018080602001828103825260298152602001806138806029913960400191505060405180910390fd5b600073ffffffffffffffffffffffffffffffffffffffff168273ffffffffffffffffffffffffffffffffffffffff161415612797576040517f08c379a00000000000000000000000000000000000000000000000000000000081526004018080602001828103825260248152602001806137316024913960400191505060405180910390fd5b6127a2838383612cec565b6127ad6000826124c3565b6127fe81600160008673ffffffffffffffffffffffffffffffffffffffff1673ffffffffffffffffffffffffffffffffffffffff168152602001908152602001600020612cf190919063ffffffff16565b5061285081600160008573ffffffffffffffffffffffffffffffffffffffff1673ffffffffffffffffffffffffffffffffffffffff168152602001908152602001600020612d0b90919063ffffffff16565b5061286781836002612d259092919063ffffffff16565b50808273ffffffffffffffffffffffffffffffffffffffff168473ffffffffffffffffffffffffffffffffffffffff167fddf252ad1be2c89b69c2b068fc378daa952ba7f163c4a11628f55a4df523b3ef60405160405180910390a4505050565b6000806000806128db8660000186612d5a565b915091508160001c8160001c8090509350935050509250929050565b600073ffffffffffffffffffffffffffffffffffffffff168273ffffffffffffffffffffffffffffffffffffffff16141561299a576040517f08c379a00000000000000000000000000000000000000000000000000000000081526004018080602001828103825260208152602001807f4552433732313a206d696e7420746f20746865207a65726f206164647265737381525060200191505060405180910390fd5b6129a38161249e565b15612a16576040517f08c379a000000000000000000000000000000000000000000000000000000000815260040180806020018281038252601c8152602001807f4552433732313a20746f6b656e20616c7265616479206d696e7465640000000081525060200191505060405180910390fd5b612a2260008383612cec565b612a7381600160008573ffffffffffffffffffffffffffffffffffffffff1673ffffffffffffffffffffffffffffffffffffffff168152602001908152602001600020612d0b90919063ffffffff16565b50612a8a81836002612d259092919063ffffffff16565b50808273ffffffffffffffffffffffffffffffffffffffff16600073ffffffffffffffffffffffffffffffffffffffff167fddf252ad1be2c89b69c2b068fc378daa952ba7f163c4a11628f55a4df523b3ef60405160405180910390a45050565b6000612afe846000018460001b84612df3565b60001c90509392505050565b6000612b1882600001612ee9565b9050919050565b612b2a848484612685565b612b3684848484612efa565b612b8b576040517f08c379a00000000000000000000000000000000000000000000000000000000081526004018080602001828103825260328152602001806136ff6032913960400191505060405180910390fd5b50505050565b60606000821415612bd9576040518060400160405280600181526020017f30000000000000000000000000000000000000000000000000000000000000008152509050612cbc565b600082905060005b60008214612c03578080600101915050600a8281612bfb57fe5b049150612be1565b6060816040519080825280601f01601f191660200182016040528015612c385781602001600182028038833980820191505090505b50905060006001830390508593505b60008414612cb457600a8481612c5957fe5b0660300160f81b82828060019003935081518110612c7357fe5b60200101907effffffffffffffffffffffffffffffffffffffffffffffffffffffffffffff1916908160001a905350600a8481612cac57fe5b049350612c47565b819450505050505b919050565b6000612cd3836000018360001b61313f565b905092915050565b600081600001805490509050919050565b505050565b6000612d03836000018360001b613162565b905092915050565b6000612d1d836000018360001b61324a565b905092915050565b6000612d51846000018460001b8473ffffffffffffffffffffffffffffffffffffffff1660001b6132ba565b90509392505050565b60008082846000018054905011612dbc576040517f08c379a00000000000000000000000000000000000000000000000000000000081526004018080602001828103825260228152602001806138326022913960400191505060405180910390fd5b6000846000018481548110612dcd57fe5b906000526020600020906002020190508060000154816001015492509250509250929050565b60008084600101600085815260200190815260200160002054905060008114158390612eba576040517f08c379a00000000000000000000000000000000000000000000000000000000081526004018080602001828103825283818151815260200191508051906020019080838360005b83811015612e7f578082015181840152602081019050612e64565b50505050905090810190601f168015612eac5780820380516001836020036101000a031916815260200191505b509250505060405180910390fd5b50846000016001820381548110612ecd57fe5b9060005260206000209060020201600101549150509392505050565b600081600001805490509050919050565b6000612f1b8473ffffffffffffffffffffffffffffffffffffffff16613396565b612f285760019050613137565b60606130be63150b7a0260e01b612f3d6124bb565b888787604051602401808573ffffffffffffffffffffffffffffffffffffffff1673ffffffffffffffffffffffffffffffffffffffff1681526020018473ffffffffffffffffffffffffffffffffffffffff1673ffffffffffffffffffffffffffffffffffffffff16815260200183815260200180602001828103825283818151815260200191508051906020019080838360005b83811015612fed578082015181840152602081019050612fd2565b50505050905090810190601f16801561301a5780820380516001836020036101000a031916815260200191505b5095505050505050604051602081830303815290604052907bffffffffffffffffffffffffffffffffffffffffffffffffffffffff19166020820180517bffffffffffffffffffffffffffffffffffffffffffffffffffffffff83818316178352505050506040518060600160405280603281526020016136ff603291398773ffffffffffffffffffffffffffffffffffffffff166133a99092919063ffffffff16565b905060008180602001905160208110156130d757600080fd5b8101908080519060200190929190505050905063150b7a0260e01b7bffffffffffffffffffffffffffffffffffffffffffffffffffffffff1916817bffffffffffffffffffffffffffffffffffffffffffffffffffffffff191614925050505b949350505050565b600080836001016000848152602001908152602001600020541415905092915050565b6000808360010160008481526020019081526020016000205490506000811461323e57600060018203905060006001866000018054905003905060008660000182815481106131ad57fe5b90600052602060002001549050808760000184815481106131ca57fe5b906000526020600020018190555060018301876001016000838152602001908152602001600020819055508660000180548061320257fe5b60019003818190600052602060002001600090559055866001016000878152602001908152602001600020600090556001945050505050613244565b60009150505b92915050565b600061325683836133c1565b6132af5782600001829080600181540180825580915050600190039060005260206000200160009091909190915055826000018054905083600101600084815260200190815260200160002081905550600190506132b4565b600090505b92915050565b60008084600101600085815260200190815260200160002054905060008114156133615784600001604051806040016040528086815260200185815250908060018154018082558091505060019003906000526020600020906002020160009091909190915060008201518160000155602082015181600101555050846000018054905085600101600086815260200190815260200160002081905550600191505061338f565b8285600001600183038154811061337457fe5b90600052602060002090600202016001018190555060009150505b9392505050565b600080823b905060008111915050919050565b60606133b884846000856133e4565b90509392505050565b600080836001016000848152602001908152602001600020541415905092915050565b60608247101561343f576040517f08c379a00000000000000000000000000000000000000000000000000000000081526004018080602001828103825260268152602001806137556026913960400191505060405180910390fd5b61344885613396565b6134ba576040517f08c379a000000000000000000000000000000000000000000000000000000000815260040180806020018281038252601d8152602001807f416464726573733a2063616c6c20746f206e6f6e2d636f6e747261637400000081525060200191505060405180910390fd5b600060608673ffffffffffffffffffffffffffffffffffffffff1685876040518082805190602001908083835b6020831061350a57805182526020820191506020810190506020830392506134e7565b6001836020036101000a03801982511681845116808217855250505050505090500191505060006040518083038185875af1925050503d806000811461356c576040519150601f19603f3d011682016040523d82523d6000602084013e613571565b606091505b509150915061358182828661358d565b92505050949350505050565b6060831561359d57829050613652565b6000835111156135b05782518084602001fd5b816040517f08c379a00000000000000000000000000000000000000000000000000000000081526004018080602001828103825283818151815260200191508051906020019080838360005b838110156136175780820151818401526020810190506135fc565b50505050905090810190601f1680156136445780820380516001836020036101000a031916815260200191505b509250505060405180910390fd5b9392505050565b828054600181600116156101000203166002900490600052602060002090601f016020900481019282601f1061369a57805160ff19168380011785556136c8565b828001600101855582156136c8579182015b828111156136c75782518255916020019190600101906136ac565b5b5090506136d591906136d9565b5090565b6136fb91905b808211156136f75760008160009055506001016136df565b5090565b9056fe4552433732313a207472616e7366657220746f206e6f6e20455243373231526563656976657220696d706c656d656e7465724552433732313a207472616e7366657220746f20746865207a65726f2061646472657373416464726573733a20696e73756666696369656e742062616c616e636520666f722063616c6c4552433732313a206f70657261746f7220717565727920666f72206e6f6e6578697374656e7420746f6b656e4552433732313a20617070726f76652063616c6c6572206973206e6f74206f776e6572206e6f7220617070726f76656420666f7220616c6c4552433732313a2062616c616e636520717565727920666f7220746865207a65726f20616464726573734552433732313a206f776e657220717565727920666f72206e6f6e6578697374656e7420746f6b656e456e756d657261626c654d61703a20696e646578206f7574206f6620626f756e64734552433732313a20617070726f76656420717565727920666f72206e6f6e6578697374656e7420746f6b656e4552433732313a207472616e73666572206f6620746f6b656e2074686174206973206e6f74206f776e4552433732314d657461646174613a2055524920717565727920666f72206e6f6e6578697374656e7420746f6b656e4552433732313a20617070726f76616c20746f2063757272656e74206f776e657254686973206163636f756e7420646f65736e277420686176652074686520726967687420746f2063726561746520416e696d616c20546f6b656e4552433732313a207472616e736665722063616c6c6572206973206e6f74206f776e6572206e6f7220617070726f766564a2646970667358221220e67bae37fbe1a8921807751b8104487c42e67836b3d2a11e193e69872cf1127f64736f6c63430006020033",
  "source": "pragma solidity ^0.6.0;\r\n\r\n\r\nimport \"./IExerciceSolution.sol\";\r\nimport \"@openzeppelin/contracts/token/ERC721/ERC721.sol\";\r\n\r\ncontract mysolutionerc721 is IExerciceSolution,ERC721 {\r\n\r\n    // NFT particularities\r\n    mapping(uint => string) public  nameToken;\r\n    mapping(uint => bool) public wingsToken;\r\n    mapping(uint => uint) public legsToken;\r\n    mapping(uint => uint) public sexToken;\r\n    mapping(address => bool) public breader;\r\n\r\n\r\n\r\n    constructor (string memory name_, string memory symbol_,address evaluator) ERC721(name_,symbol_) public {\r\n    }\r\n\r\n    // function for Animal creation \r\n\r\n    function Creation(address _to,uint _id,string memory _name,bool _wings,uint _legs,uint _sex) public {\r\n        require(msg.sender == 0x73357Cd45BF8183fde040AbaA4b03209e3d8D104, \"This account doesn't have the right to create Animal Token\");\r\n        _mint(_to, _id);\r\n        nameToken[_id]=_name;\r\n        wingsToken[_id]=_wings;\r\n        legsToken[_id]=_legs;\r\n        sexToken[_id]=_sex;\r\n    }\r\n\r\n    //function of IExerciceSolution.sol function :\r\n    function isBreeder(address account) external  override returns (bool){\r\n        return breader[account];\r\n    }\r\n\r\n\tfunction registrationPrice() external override returns (uint256){\r\n        return 0.0001 ether;\r\n    }\r\n\r\n\tfunction registerMeAsBreeder() external override payable{\r\n        require(msg.value > this.registrationPrice());\r\n        breader[msg.sender] = true;\r\n    }\r\n\r\n\tfunction declareAnimal(uint sex, uint legs, bool wings, string calldata name) external override returns (uint256){\r\n\r\n    }\r\n\r\n\tfunction getAnimalCharacteristics(uint animalNumber) external override returns (string memory _name, bool _wings, uint _legs, uint _sex){\r\n        return (nameToken[animalNumber],wingsToken[animalNumber],legsToken[animalNumber],sexToken[animalNumber]);\r\n    }\r\n\r\n\tfunction declareDeadAnimal(uint animalNumber) external override {\r\n\r\n    }\r\n\r\n\tfunction tokenOfOwnerByIndex(address owner, uint256 index) public view override(IExerciceSolution,ERC721) returns (uint256){\r\n\r\n    }\r\n\r\n\t// Selling functions\r\n\tfunction isAnimalForSale(uint animalNumber) external view override returns (bool){\r\n\r\n    }\r\n\r\n\tfunction animalPrice(uint animalNumber) external view override returns (uint256){\r\n\r\n    }\r\n\r\n\tfunction buyAnimal(uint animalNumber) external payable override {\r\n\r\n    }\r\n\r\n\tfunction offerForSale(uint animalNumber, uint price) external override {\r\n\r\n    }\r\n\r\n\t// Reproduction functions\r\n\tfunction declareAnimalWithParents(uint sex, uint legs, bool wings, string calldata name, uint parent1, uint parent2) external override returns (uint256){\r\n\r\n    }\r\n\r\n\tfunction getParents(uint animalNumber) external override returns (uint256, uint256){\r\n\r\n    }\r\n\r\n\tfunction canReproduce(uint animalNumber) external override returns (bool){\r\n\r\n    }\r\n\r\n\tfunction reproductionPrice(uint animalNumber) external view override returns (uint256){\r\n\r\n    }\r\n\r\n\tfunction offerForReproduction(uint animalNumber, uint priceOfReproduction) external override returns (uint256){\r\n\r\n    }\r\n\r\n\tfunction authorizedBreederToReproduce(uint animalNumber) external override returns (address){\r\n\r\n    }\r\n\r\n\tfunction payForReproduction(uint animalNumber) external payable override {\r\n\r\n    }\r\n}",
  "sourcePath": "C:\\users\\nathan\\desktop\\td solidity\\erc721-101-main\\contracts\\MySolutionErc721.sol",
  "compiler": {
    "name": "solc",
    "version": "0.6.2+commit.bacdbe57.Emscripten.clang"
  },
  "schemaVersion": "3.4.11",
  "updatedAt": "2022-12-29T01:41:23.484Z",
  "devdoc": {
    "methods": {
      "approve(address,uint256)": {
        "details": "See {IERC721-approve}."
      },
      "balanceOf(address)": {
        "details": "See {IERC721-balanceOf}."
      },
      "baseURI()": {
        "details": "Returns the base URI set via {_setBaseURI}. This will be automatically added as a prefix in {tokenURI} to each token's URI, or to the token ID if no specific URI is set for that token ID."
      },
      "getApproved(uint256)": {
        "details": "See {IERC721-getApproved}."
      },
      "isApprovedForAll(address,address)": {
        "details": "See {IERC721-isApprovedForAll}."
      },
      "name()": {
        "details": "See {IERC721Metadata-name}."
      },
      "ownerOf(uint256)": {
        "details": "See {IERC721-ownerOf}."
      },
      "safeTransferFrom(address,address,uint256)": {
        "details": "See {IERC721-safeTransferFrom}."
      },
      "safeTransferFrom(address,address,uint256,bytes)": {
        "details": "See {IERC721-safeTransferFrom}."
      },
      "setApprovalForAll(address,bool)": {
        "details": "See {IERC721-setApprovalForAll}."
      },
      "supportsInterface(bytes4)": {
        "details": "See {IERC165-supportsInterface}.     * Time complexity O(1), guaranteed to always use less than 30 000 gas."
      },
      "symbol()": {
        "details": "See {IERC721Metadata-symbol}."
      },
      "tokenByIndex(uint256)": {
        "details": "See {IERC721Enumerable-tokenByIndex}."
      },
      "tokenURI(uint256)": {
        "details": "See {IERC721Metadata-tokenURI}."
      },
      "totalSupply()": {
        "details": "See {IERC721Enumerable-totalSupply}."
      },
      "transferFrom(address,address,uint256)": {
        "details": "See {IERC721-transferFrom}."
      }
    }
  },
  "userdoc": {
    "methods": {}
  }
}