{
  "contractName": "mysolutionerc721",
  "abi": [
    {
      "inputs": [
        {
          "internalType": "string",
          "name": "name_",
          "type": "string"
        },
        {
          "internalType": "string",
          "name": "symbol_",
          "type": "string"
        }
      ],
      "stateMutability": "nonpayable",
      "type": "constructor"
    },
    {
      "anonymous": false,
      "inputs": [
        {
          "indexed": true,
          "internalType": "address",
          "name": "owner",
          "type": "address"
        },
        {
          "indexed": true,
          "internalType": "address",
          "name": "approved",
          "type": "address"
        },
        {
          "indexed": true,
          "internalType": "uint256",
          "name": "tokenId",
          "type": "uint256"
        }
      ],
      "name": "Approval",
      "type": "event"
    },
    {
      "anonymous": false,
      "inputs": [
        {
          "indexed": true,
          "internalType": "address",
          "name": "owner",
          "type": "address"
        },
        {
          "indexed": true,
          "internalType": "address",
          "name": "operator",
          "type": "address"
        },
        {
          "indexed": false,
          "internalType": "bool",
          "name": "approved",
          "type": "bool"
        }
      ],
      "name": "ApprovalForAll",
      "type": "event"
    },
    {
      "anonymous": false,
      "inputs": [
        {
          "indexed": true,
          "internalType": "address",
          "name": "from",
          "type": "address"
        },
        {
          "indexed": true,
          "internalType": "address",
          "name": "to",
          "type": "address"
        },
        {
          "indexed": true,
          "internalType": "uint256",
          "name": "tokenId",
          "type": "uint256"
        }
      ],
      "name": "Transfer",
      "type": "event"
    },
    {
      "inputs": [
        {
          "internalType": "uint256",
          "name": "",
          "type": "uint256"
        }
      ],
      "name": "NFTdetails",
      "outputs": [
        {
          "internalType": "string",
          "name": "name",
          "type": "string"
        },
        {
          "internalType": "bool",
          "name": "wings",
          "type": "bool"
        },
        {
          "internalType": "uint256",
          "name": "legs",
          "type": "uint256"
        },
        {
          "internalType": "uint256",
          "name": "sex",
          "type": "uint256"
        }
      ],
      "stateMutability": "view",
      "type": "function"
    },
    {
      "inputs": [
        {
          "internalType": "address",
          "name": "to",
          "type": "address"
        },
        {
          "internalType": "uint256",
          "name": "tokenId",
          "type": "uint256"
        }
      ],
      "name": "approve",
      "outputs": [],
      "stateMutability": "nonpayable",
      "type": "function"
    },
    {
      "inputs": [
        {
          "internalType": "address",
          "name": "owner",
          "type": "address"
        }
      ],
      "name": "balanceOf",
      "outputs": [
        {
          "internalType": "uint256",
          "name": "",
          "type": "uint256"
        }
      ],
      "stateMutability": "view",
      "type": "function"
    },
    {
      "inputs": [],
      "name": "baseURI",
      "outputs": [
        {
          "internalType": "string",
          "name": "",
          "type": "string"
        }
      ],
      "stateMutability": "view",
      "type": "function"
    },
    {
      "inputs": [
        {
          "internalType": "address",
          "name": "",
          "type": "address"
        }
      ],
      "name": "breeder",
      "outputs": [
        {
          "internalType": "bool",
          "name": "",
          "type": "bool"
        }
      ],
      "stateMutability": "view",
      "type": "function"
    },
    {
      "inputs": [
        {
          "internalType": "uint256",
          "name": "tokenId",
          "type": "uint256"
        }
      ],
      "name": "getApproved",
      "outputs": [
        {
          "internalType": "address",
          "name": "",
          "type": "address"
        }
      ],
      "stateMutability": "view",
      "type": "function"
    },
    {
      "inputs": [
        {
          "internalType": "address",
          "name": "owner",
          "type": "address"
        },
        {
          "internalType": "address",
          "name": "operator",
          "type": "address"
        }
      ],
      "name": "isApprovedForAll",
      "outputs": [
        {
          "internalType": "bool",
          "name": "",
          "type": "bool"
        }
      ],
      "stateMutability": "view",
      "type": "function"
    },
    {
      "inputs": [],
      "name": "name",
      "outputs": [
        {
          "internalType": "string",
          "name": "",
          "type": "string"
        }
      ],
      "stateMutability": "view",
      "type": "function"
    },
    {
      "inputs": [
        {
          "internalType": "uint256",
          "name": "tokenId",
          "type": "uint256"
        }
      ],
      "name": "ownerOf",
      "outputs": [
        {
          "internalType": "address",
          "name": "",
          "type": "address"
        }
      ],
      "stateMutability": "view",
      "type": "function"
    },
    {
      "inputs": [],
      "name": "proprio",
      "outputs": [
        {
          "internalType": "address",
          "name": "",
          "type": "address"
        }
      ],
      "stateMutability": "view",
      "type": "function"
    },
    {
      "inputs": [
        {
          "internalType": "address",
          "name": "from",
          "type": "address"
        },
        {
          "internalType": "address",
          "name": "to",
          "type": "address"
        },
        {
          "internalType": "uint256",
          "name": "tokenId",
          "type": "uint256"
        }
      ],
      "name": "safeTransferFrom",
      "outputs": [],
      "stateMutability": "nonpayable",
      "type": "function"
    },
    {
      "inputs": [
        {
          "internalType": "address",
          "name": "from",
          "type": "address"
        },
        {
          "internalType": "address",
          "name": "to",
          "type": "address"
        },
        {
          "internalType": "uint256",
          "name": "tokenId",
          "type": "uint256"
        },
        {
          "internalType": "bytes",
          "name": "_data",
          "type": "bytes"
        }
      ],
      "name": "safeTransferFrom",
      "outputs": [],
      "stateMutability": "nonpayable",
      "type": "function"
    },
    {
      "inputs": [
        {
          "internalType": "address",
          "name": "operator",
          "type": "address"
        },
        {
          "internalType": "bool",
          "name": "approved",
          "type": "bool"
        }
      ],
      "name": "setApprovalForAll",
      "outputs": [],
      "stateMutability": "nonpayable",
      "type": "function"
    },
    {
      "inputs": [
        {
          "internalType": "bytes4",
          "name": "interfaceId",
          "type": "bytes4"
        }
      ],
      "name": "supportsInterface",
      "outputs": [
        {
          "internalType": "bool",
          "name": "",
          "type": "bool"
        }
      ],
      "stateMutability": "view",
      "type": "function"
    },
    {
      "inputs": [],
      "name": "symbol",
      "outputs": [
        {
          "internalType": "string",
          "name": "",
          "type": "string"
        }
      ],
      "stateMutability": "view",
      "type": "function"
    },
    {
      "inputs": [
        {
          "internalType": "uint256",
          "name": "index",
          "type": "uint256"
        }
      ],
      "name": "tokenByIndex",
      "outputs": [
        {
          "internalType": "uint256",
          "name": "",
          "type": "uint256"
        }
      ],
      "stateMutability": "view",
      "type": "function"
    },
    {
      "inputs": [
        {
          "internalType": "uint256",
          "name": "tokenId",
          "type": "uint256"
        }
      ],
      "name": "tokenURI",
      "outputs": [
        {
          "internalType": "string",
          "name": "",
          "type": "string"
        }
      ],
      "stateMutability": "view",
      "type": "function"
    },
    {
      "inputs": [],
      "name": "totalSupply",
      "outputs": [
        {
          "internalType": "uint256",
          "name": "",
          "type": "uint256"
        }
      ],
      "stateMutability": "view",
      "type": "function"
    },
    {
      "inputs": [
        {
          "internalType": "address",
          "name": "from",
          "type": "address"
        },
        {
          "internalType": "address",
          "name": "to",
          "type": "address"
        },
        {
          "internalType": "uint256",
          "name": "tokenId",
          "type": "uint256"
        }
      ],
      "name": "transferFrom",
      "outputs": [],
      "stateMutability": "nonpayable",
      "type": "function"
    },
    {
      "inputs": [
        {
          "internalType": "address",
          "name": "_to",
          "type": "address"
        },
        {
          "internalType": "uint256",
          "name": "_id",
          "type": "uint256"
        },
        {
          "internalType": "string",
          "name": "_name",
          "type": "string"
        },
        {
          "internalType": "bool",
          "name": "_wings",
          "type": "bool"
        },
        {
          "internalType": "uint256",
          "name": "_legs",
          "type": "uint256"
        },
        {
          "internalType": "uint256",
          "name": "_sex",
          "type": "uint256"
        }
      ],
      "name": "Creation",
      "outputs": [],
      "stateMutability": "nonpayable",
      "type": "function"
    },
    {
      "inputs": [
        {
          "internalType": "address",
          "name": "account",
          "type": "address"
        }
      ],
      "name": "isBreeder",
      "outputs": [
        {
          "internalType": "bool",
          "name": "",
          "type": "bool"
        }
      ],
      "stateMutability": "nonpayable",
      "type": "function"
    },
    {
      "inputs": [],
      "name": "registrationPrice",
      "outputs": [
        {
          "internalType": "uint256",
          "name": "",
          "type": "uint256"
        }
      ],
      "stateMutability": "nonpayable",
      "type": "function"
    },
    {
      "inputs": [],
      "name": "registerMeAsBreeder",
      "outputs": [],
      "stateMutability": "payable",
      "type": "function"
    },
    {
      "inputs": [
        {
          "internalType": "uint256",
          "name": "sex",
          "type": "uint256"
        },
        {
          "internalType": "uint256",
          "name": "legs",
          "type": "uint256"
        },
        {
          "internalType": "bool",
          "name": "wings",
          "type": "bool"
        },
        {
          "internalType": "string",
          "name": "name",
          "type": "string"
        }
      ],
      "name": "declareAnimal",
      "outputs": [
        {
          "internalType": "uint256",
          "name": "",
          "type": "uint256"
        }
      ],
      "stateMutability": "nonpayable",
      "type": "function"
    },
    {
      "inputs": [
        {
          "internalType": "uint256",
          "name": "animalNumber",
          "type": "uint256"
        }
      ],
      "name": "getAnimalCharacteristics",
      "outputs": [
        {
          "internalType": "string",
          "name": "_name",
          "type": "string"
        },
        {
          "internalType": "bool",
          "name": "_wings",
          "type": "bool"
        },
        {
          "internalType": "uint256",
          "name": "_legs",
          "type": "uint256"
        },
        {
          "internalType": "uint256",
          "name": "_sex",
          "type": "uint256"
        }
      ],
      "stateMutability": "nonpayable",
      "type": "function"
    },
    {
      "inputs": [
        {
          "internalType": "uint256",
          "name": "animalNumber",
          "type": "uint256"
        }
      ],
      "name": "declareDeadAnimal",
      "outputs": [],
      "stateMutability": "nonpayable",
      "type": "function"
    },
    {
      "inputs": [
        {
          "internalType": "address",
          "name": "owner",
          "type": "address"
        },
        {
          "internalType": "uint256",
          "name": "index",
          "type": "uint256"
        }
      ],
      "name": "tokenOfOwnerByIndex",
      "outputs": [
        {
          "internalType": "uint256",
          "name": "",
          "type": "uint256"
        }
      ],
      "stateMutability": "view",
      "type": "function"
    },
    {
      "inputs": [
        {
          "internalType": "uint256",
          "name": "animalNumber",
          "type": "uint256"
        }
      ],
      "name": "isAnimalForSale",
      "outputs": [
        {
          "internalType": "bool",
          "name": "",
          "type": "bool"
        }
      ],
      "stateMutability": "view",
      "type": "function"
    },
    {
      "inputs": [
        {
          "internalType": "uint256",
          "name": "animalNumber",
          "type": "uint256"
        }
      ],
      "name": "animalPrice",
      "outputs": [
        {
          "internalType": "uint256",
          "name": "",
          "type": "uint256"
        }
      ],
      "stateMutability": "view",
      "type": "function"
    },
    {
      "inputs": [
        {
          "internalType": "uint256",
          "name": "animalNumber",
          "type": "uint256"
        }
      ],
      "name": "buyAnimal",
      "outputs": [],
      "stateMutability": "payable",
      "type": "function"
    },
    {
      "inputs": [
        {
          "internalType": "uint256",
          "name": "animalNumber",
          "type": "uint256"
        },
        {
          "internalType": "uint256",
          "name": "price",
          "type": "uint256"
        }
      ],
      "name": "offerForSale",
      "outputs": [],
      "stateMutability": "nonpayable",
      "type": "function"
    },
    {
      "inputs": [
        {
          "internalType": "uint256",
          "name": "sex",
          "type": "uint256"
        },
        {
          "internalType": "uint256",
          "name": "legs",
          "type": "uint256"
        },
        {
          "internalType": "bool",
          "name": "wings",
          "type": "bool"
        },
        {
          "internalType": "string",
          "name": "name",
          "type": "string"
        },
        {
          "internalType": "uint256",
          "name": "parent1",
          "type": "uint256"
        },
        {
          "internalType": "uint256",
          "name": "parent2",
          "type": "uint256"
        }
      ],
      "name": "declareAnimalWithParents",
      "outputs": [
        {
          "internalType": "uint256",
          "name": "",
          "type": "uint256"
        }
      ],
      "stateMutability": "nonpayable",
      "type": "function"
    },
    {
      "inputs": [
        {
          "internalType": "uint256",
          "name": "animalNumber",
          "type": "uint256"
        }
      ],
      "name": "getParents",
      "outputs": [
        {
          "internalType": "uint256",
          "name": "",
          "type": "uint256"
        },
        {
          "internalType": "uint256",
          "name": "",
          "type": "uint256"
        }
      ],
      "stateMutability": "nonpayable",
      "type": "function"
    },
    {
      "inputs": [
        {
          "internalType": "uint256",
          "name": "animalNumber",
          "type": "uint256"
        }
      ],
      "name": "canReproduce",
      "outputs": [
        {
          "internalType": "bool",
          "name": "",
          "type": "bool"
        }
      ],
      "stateMutability": "nonpayable",
      "type": "function"
    },
    {
      "inputs": [
        {
          "internalType": "uint256",
          "name": "animalNumber",
          "type": "uint256"
        }
      ],
      "name": "reproductionPrice",
      "outputs": [
        {
          "internalType": "uint256",
          "name": "",
          "type": "uint256"
        }
      ],
      "stateMutability": "view",
      "type": "function"
    },
    {
      "inputs": [
        {
          "internalType": "uint256",
          "name": "animalNumber",
          "type": "uint256"
        },
        {
          "internalType": "uint256",
          "name": "priceOfReproduction",
          "type": "uint256"
        }
      ],
      "name": "offerForReproduction",
      "outputs": [
        {
          "internalType": "uint256",
          "name": "",
          "type": "uint256"
        }
      ],
      "stateMutability": "nonpayable",
      "type": "function"
    },
    {
      "inputs": [
        {
          "internalType": "uint256",
          "name": "animalNumber",
          "type": "uint256"
        }
      ],
      "name": "authorizedBreederToReproduce",
      "outputs": [
        {
          "internalType": "address",
          "name": "",
          "type": "address"
        }
      ],
      "stateMutability": "nonpayable",
      "type": "function"
    },
    {
      "inputs": [
        {
          "internalType": "uint256",
          "name": "animalNumber",
          "type": "uint256"
        }
      ],
      "name": "payForReproduction",
      "outputs": [],
      "stateMutability": "payable",
      "type": "function"
    }
  ],
  "bytecode": "0x60806040523480156200001157600080fd5b5060405162003d1e38038062003d1e833981810160405260408110156200003757600080fd5b81019080805160405193929190846401000000008211156200005857600080fd5b838201915060208201858111156200006f57600080fd5b82518660018202830111640100000000821117156200008d57600080fd5b8083526020830192505050908051906020019080838360005b83811015620000c3578082015181840152602081019050620000a6565b50505050905090810190601f168015620000f15780820380516001836020036101000a031916815260200191505b50604052602001805160405193929190846401000000008211156200011557600080fd5b838201915060208201858111156200012c57600080fd5b82518660018202830111640100000000821117156200014a57600080fd5b8083526020830192505050908051906020019080838360005b838110156200018057808201518184015260208101905062000163565b50505050905090810190601f168015620001ae5780820380516001836020036101000a031916815260200191505b506040525050508181620001cf6301ffc9a760e01b6200029460201b60201c565b8160069080519060200190620001e79291906200039d565b508060079080519060200190620002009291906200039d565b50620002196380ac58cd60e01b6200029460201b60201c565b62000231635b5e139f60e01b6200029460201b60201c565b6200024963780e9d6360e01b6200029460201b60201c565b505033600c60006101000a81548173ffffffffffffffffffffffffffffffffffffffff021916908373ffffffffffffffffffffffffffffffffffffffff16021790555050506200044c565b63ffffffff60e01b817bffffffffffffffffffffffffffffffffffffffffffffffffffffffff1916141562000331576040517f08c379a000000000000000000000000000000000000000000000000000000000815260040180806020018281038252601c8152602001807f4552433136353a20696e76616c696420696e746572666163652069640000000081525060200191505060405180910390fd5b6001600080837bffffffffffffffffffffffffffffffffffffffffffffffffffffffff19167bffffffffffffffffffffffffffffffffffffffffffffffffffffffff1916815260200190815260200160002060006101000a81548160ff02191690831515021790555050565b828054600181600116156101000203166002900490600052602060002090601f016020900481019282601f10620003e057805160ff191683800117855562000411565b8280016001018555821562000411579182015b8281111562000410578251825591602001919060010190620003f3565b5b50905062000420919062000424565b5090565b6200044991905b80821115620004455760008160009055506001016200042b565b5090565b90565b6138c2806200045c6000396000f3fe6080604052600436106102255760003560e01c80634f6ccce711610123578063a0c32c8f116100ab578063c7b9cb0b1161006f578063c7b9cb0b1461115a578063c87b56dd146111c3578063e985e9c514611277578063ec89777214611300578063ff36ed981461133b57610225565b8063a0c32c8f14610e72578063a22cb46514610ecb578063b75e075014610f28578063b88d4fde14610ff5578063c5f51f731461110757610225565b806370a08231116100f257806370a0823114610c0157806377386df314610c665780638822172414610cab578063929c13e314610d1457806395d89b4114610de257610225565b80634f6ccce71461099557806357e5d987146109e45780636352211e14610af65780636c0360eb14610b7157610225565b8063242a0087116101b15780633573dbd1116101755780633573dbd1146108175780633937cfac1461086657806341d30bae146108bd57806342842e0e146108c75780634abda8c81461094257610225565b8063242a0087146105ce57806327aa8f31146106245780632a4672b21461069f5780632f745c59146106ee57806332b0f3761461075d57610225565b806318160ddd116101f857806318160ddd146104025780631a14e94a1461042d578063216586581461045b578063236169b01461048657806323b872dd1461055357610225565b806301ffc9a71461022a57806306fdde031461029c578063081812fc1461032c578063095ea7b3146103a7575b600080fd5b34801561023657600080fd5b506102826004803603602081101561024d57600080fd5b8101908080357bffffffffffffffffffffffffffffffffffffffffffffffffffffffff19169060200190929190505050611369565b604051808215151515815260200191505060405180910390f35b3480156102a857600080fd5b506102b16113d0565b6040518080602001828103825283818151815260200191508051906020019080838360005b838110156102f15780820151818401526020810190506102d6565b50505050905090810190601f16801561031e5780820380516001836020036101000a031916815260200191505b509250505060405180910390f35b34801561033857600080fd5b506103656004803603602081101561034f57600080fd5b8101908080359060200190929190505050611472565b604051808273ffffffffffffffffffffffffffffffffffffffff1673ffffffffffffffffffffffffffffffffffffffff16815260200191505060405180910390f35b3480156103b357600080fd5b50610400600480360360408110156103ca57600080fd5b81019080803573ffffffffffffffffffffffffffffffffffffffff1690602001909291908035906020019092919050505061150d565b005b34801561040e57600080fd5b50610417611651565b6040518082815260200191505060405180910390f35b6104596004803603602081101561044357600080fd5b8101908080359060200190929190505050611662565b005b34801561046757600080fd5b50610470611665565b6040518082815260200191505060405180910390f35b34801561049257600080fd5b506104bf600480360360208110156104a957600080fd5b8101908080359060200190929190505050611673565b604051808060200185151515158152602001848152602001838152602001828103825286818151815260200191508051906020019080838360005b838110156105155780820151818401526020810190506104fa565b50505050905090810190601f1680156105425780820380516001836020036101000a031916815260200191505b509550505050505060405180910390f35b34801561055f57600080fd5b506105cc6004803603606081101561057657600080fd5b81019080803573ffffffffffffffffffffffffffffffffffffffff169060200190929190803573ffffffffffffffffffffffffffffffffffffffff16906020019092919080359060200190929190505050611748565b005b3480156105da57600080fd5b50610607600480360360208110156105f157600080fd5b81019080803590602001909291905050506117be565b604051808381526020018281526020019250505060405180910390f35b34801561063057600080fd5b5061065d6004803603602081101561064757600080fd5b81019080803590602001909291905050506117c6565b604051808273ffffffffffffffffffffffffffffffffffffffff1673ffffffffffffffffffffffffffffffffffffffff16815260200191505060405180910390f35b3480156106ab57600080fd5b506106d8600480360360208110156106c257600080fd5b81019080803590602001909291905050506117cd565b6040518082815260200191505060405180910390f35b3480156106fa57600080fd5b506107476004803603604081101561071157600080fd5b81019080803573ffffffffffffffffffffffffffffffffffffffff169060200190929190803590602001909291905050506117d4565b6040518082815260200191505060405180910390f35b34801561076957600080fd5b506108016004803603608081101561078057600080fd5b810190808035906020019092919080359060200190929190803515159060200190929190803590602001906401000000008111156107bd57600080fd5b8201836020820111156107cf57600080fd5b803590602001918460018302840111640100000000831117156107f157600080fd5b90919293919293905050506117dc565b6040518082815260200191505060405180910390f35b34801561082357600080fd5b506108506004803603602081101561083a57600080fd5b81019080803590602001909291905050506117e7565b6040518082815260200191505060405180910390f35b34801561087257600080fd5b5061087b6117ee565b604051808273ffffffffffffffffffffffffffffffffffffffff1673ffffffffffffffffffffffffffffffffffffffff16815260200191505060405180910390f35b6108c5611814565b005b3480156108d357600080fd5b50610940600480360360608110156108ea57600080fd5b81019080803573ffffffffffffffffffffffffffffffffffffffff169060200190929190803573ffffffffffffffffffffffffffffffffffffffff169060200190929190803590602001909291905050506118fc565b005b34801561094e57600080fd5b5061097b6004803603602081101561096557600080fd5b810190808035906020019092919050505061191c565b604051808215151515815260200191505060405180910390f35b3480156109a157600080fd5b506109ce600480360360208110156109b857600080fd5b8101908080359060200190929190505050611923565b6040518082815260200191505060405180910390f35b3480156109f057600080fd5b50610af4600480360360c0811015610a0757600080fd5b81019080803573ffffffffffffffffffffffffffffffffffffffff1690602001909291908035906020019092919080359060200190640100000000811115610a4e57600080fd5b820183602082011115610a6057600080fd5b80359060200191846001830284011164010000000083111715610a8257600080fd5b91908080601f016020809104026020016040519081016040528093929190818152602001838380828437600081840152601f19601f8201169050808301925050505050505091929192908035151590602001909291908035906020019092919080359060200190929190505050611946565b005b348015610b0257600080fd5b50610b2f60048036036020811015610b1957600080fd5b8101908080359060200190929190505050611a5d565b604051808273ffffffffffffffffffffffffffffffffffffffff1673ffffffffffffffffffffffffffffffffffffffff16815260200191505060405180910390f35b348015610b7d57600080fd5b50610b86611a94565b6040518080602001828103825283818151815260200191508051906020019080838360005b83811015610bc6578082015181840152602081019050610bab565b50505050905090810190601f168015610bf35780820380516001836020036101000a031916815260200191505b509250505060405180910390f35b348015610c0d57600080fd5b50610c5060048036036020811015610c2457600080fd5b81019080803573ffffffffffffffffffffffffffffffffffffffff169060200190929190505050611b36565b6040518082815260200191505060405180910390f35b348015610c7257600080fd5b50610ca960048036036040811015610c8957600080fd5b810190808035906020019092919080359060200190929190505050611c0b565b005b348015610cb757600080fd5b50610cfa60048036036020811015610cce57600080fd5b81019080803573ffffffffffffffffffffffffffffffffffffffff169060200190929190505050611c0f565b604051808215151515815260200191505060405180910390f35b348015610d2057600080fd5b50610dcc600480360360c0811015610d3757600080fd5b81019080803590602001909291908035906020019092919080351515906020019092919080359060200190640100000000811115610d7457600080fd5b820183602082011115610d8657600080fd5b80359060200191846001830284011164010000000083111715610da857600080fd5b90919293919293908035906020019092919080359060200190929190505050611c2f565b6040518082815260200191505060405180910390f35b348015610dee57600080fd5b50610df7611c3c565b6040518080602001828103825283818151815260200191508051906020019080838360005b83811015610e37578082015181840152602081019050610e1c565b50505050905090810190601f168015610e645780820380516001836020036101000a031916815260200191505b509250505060405180910390f35b348015610e7e57600080fd5b50610eb560048036036040811015610e9557600080fd5b810190808035906020019092919080359060200190929190505050611cde565b6040518082815260200191505060405180910390f35b348015610ed757600080fd5b50610f2660048036036040811015610eee57600080fd5b81019080803573ffffffffffffffffffffffffffffffffffffffff169060200190929190803515159060200190929190505050611ce6565b005b348015610f3457600080fd5b50610f6160048036036020811015610f4b57600080fd5b8101908080359060200190929190505050611e9e565b604051808060200185151515158152602001848152602001838152602001828103825286818151815260200191508051906020019080838360005b83811015610fb7578082015181840152602081019050610f9c565b50505050905090810190601f168015610fe45780820380516001836020036101000a031916815260200191505b509550505050505060405180910390f35b34801561100157600080fd5b506111056004803603608081101561101857600080fd5b81019080803573ffffffffffffffffffffffffffffffffffffffff169060200190929190803573ffffffffffffffffffffffffffffffffffffffff169060200190929190803590602001909291908035906020019064010000000081111561107f57600080fd5b82018360208201111561109157600080fd5b803590602001918460018302840111640100000000831117156110b357600080fd5b91908080601f016020809104026020016040519081016040528093929190818152602001838380828437600081840152601f19601f820116905080830192505050505050509192919290505050611f87565b005b34801561111357600080fd5b506111406004803603602081101561112a57600080fd5b8101908080359060200190929190505050611fff565b604051808215151515815260200191505060405180910390f35b34801561116657600080fd5b506111a96004803603602081101561117d57600080fd5b81019080803573ffffffffffffffffffffffffffffffffffffffff169060200190929190505050612006565b604051808215151515815260200191505060405180910390f35b3480156111cf57600080fd5b506111fc600480360360208110156111e657600080fd5b810190808035906020019092919050505061205c565b6040518080602001828103825283818151815260200191508051906020019080838360005b8381101561123c578082015181840152602081019050611221565b50505050905090810190601f1680156112695780820380516001836020036101000a031916815260200191505b509250505060405180910390f35b34801561128357600080fd5b506112e66004803603604081101561129a57600080fd5b81019080803573ffffffffffffffffffffffffffffffffffffffff169060200190929190803573ffffffffffffffffffffffffffffffffffffffff16906020019092919050505061232d565b604051808215151515815260200191505060405180910390f35b34801561130c57600080fd5b506113396004803603602081101561132357600080fd5b81019080803590602001909291905050506123c1565b005b6113676004803603602081101561135157600080fd5b81019080803590602001909291905050506123c4565b005b6000806000837bffffffffffffffffffffffffffffffffffffffffffffffffffffffff19167bffffffffffffffffffffffffffffffffffffffffffffffffffffffff1916815260200190815260200160002060009054906101000a900460ff169050919050565b606060068054600181600116156101000203166002900480601f0160208091040260200160405190810160405280929190818152602001828054600181600116156101000203166002900480156114685780601f1061143d57610100808354040283529160200191611468565b820191906000526020600020905b81548152906001019060200180831161144b57829003601f168201915b5050505050905090565b600061147d826123c7565b6114d2576040517f08c379a000000000000000000000000000000000000000000000000000000000815260040180806020018281038252602c81526020018061377d602c913960400191505060405180910390fd5b6004600083815260200190815260200160002060009054906101000a900473ffffffffffffffffffffffffffffffffffffffff169050919050565b600061151882611a5d565b90508073ffffffffffffffffffffffffffffffffffffffff168373ffffffffffffffffffffffffffffffffffffffff16141561159f576040517f08c379a00000000000000000000000000000000000000000000000000000000081526004018080602001828103825260218152602001806138016021913960400191505060405180910390fd5b8073ffffffffffffffffffffffffffffffffffffffff166115be6123e4565b73ffffffffffffffffffffffffffffffffffffffff1614806115ed57506115ec816115e76123e4565b61232d565b5b611642576040517f08c379a00000000000000000000000000000000000000000000000000000000081526004018080602001828103825260388152602001806136d06038913960400191505060405180910390fd5b61164c83836123ec565b505050565b600061165d60026124a5565b905090565b50565b6000655af3107a4000905090565b600a602052806000526040600020600091509050806000018054600181600116156101000203166002900480601f01602080910402602001604051908101604052809291908181526020018280546001816001161561010002031660029004801561171f5780601f106116f45761010080835404028352916020019161171f565b820191906000526020600020905b81548152906001019060200180831161170257829003601f168201915b5050505050908060010160009054906101000a900460ff16908060020154908060030154905084565b6117596117536123e4565b826124ba565b6117ae576040517f08c379a000000000000000000000000000000000000000000000000000000000815260040180806020018281038252603181526020018061385c6031913960400191505060405180910390fd5b6117b98383836125ae565b505050565b600080915091565b6000919050565b6000919050565b600092915050565b600095945050505050565b6000919050565b600c60009054906101000a900473ffffffffffffffffffffffffffffffffffffffff1681565b3073ffffffffffffffffffffffffffffffffffffffff1663216586586040518163ffffffff1660e01b8152600401602060405180830381600087803b15801561185c57600080fd5b505af1158015611870573d6000803e3d6000fd5b505050506040513d602081101561188657600080fd5b810190808051906020019092919050505034116118a257600080fd5b6001600b60003373ffffffffffffffffffffffffffffffffffffffff1673ffffffffffffffffffffffffffffffffffffffff16815260200190815260200160002060006101000a81548160ff021916908315150217905550565b61191783838360405180602001604052806000815250611f87565b505050565b6000919050565b60008061193a8360026127f190919063ffffffff16565b50905080915050919050565b600c60009054906101000a900473ffffffffffffffffffffffffffffffffffffffff1673ffffffffffffffffffffffffffffffffffffffff163373ffffffffffffffffffffffffffffffffffffffff16146119ec576040517f08c379a000000000000000000000000000000000000000000000000000000000815260040180806020018281038252603a815260200180613822603a913960400191505060405180910390fd5b6119f68686612820565b6000600a6000878152602001908152602001600020905084816000019080519060200190611a25929190613582565b50838160010160006101000a81548160ff02191690831515021790555082816002018190555081816003018190555050505050505050565b6000611a8d82604051806060016040528060298152602001613732602991396002612a149092919063ffffffff16565b9050919050565b606060098054600181600116156101000203166002900480601f016020809104026020016040519081016040528092919081815260200182805460018160011615610100020316600290048015611b2c5780601f10611b0157610100808354040283529160200191611b2c565b820191906000526020600020905b815481529060010190602001808311611b0f57829003601f168201915b5050505050905090565b60008073ffffffffffffffffffffffffffffffffffffffff168273ffffffffffffffffffffffffffffffffffffffff161415611bbd576040517f08c379a000000000000000000000000000000000000000000000000000000000815260040180806020018281038252602a815260200180613708602a913960400191505060405180910390fd5b611c04600160008473ffffffffffffffffffffffffffffffffffffffff1673ffffffffffffffffffffffffffffffffffffffff168152602001908152602001600020612a33565b9050919050565b5050565b600b6020528060005260406000206000915054906101000a900460ff1681565b6000979650505050505050565b606060078054600181600116156101000203166002900480601f016020809104026020016040519081016040528092919081815260200182805460018160011615610100020316600290048015611cd45780601f10611ca957610100808354040283529160200191611cd4565b820191906000526020600020905b815481529060010190602001808311611cb757829003601f168201915b5050505050905090565b600092915050565b611cee6123e4565b73ffffffffffffffffffffffffffffffffffffffff168273ffffffffffffffffffffffffffffffffffffffff161415611d8f576040517f08c379a00000000000000000000000000000000000000000000000000000000081526004018080602001828103825260198152602001807f4552433732313a20617070726f766520746f2063616c6c65720000000000000081525060200191505060405180910390fd5b8060056000611d9c6123e4565b73ffffffffffffffffffffffffffffffffffffffff1673ffffffffffffffffffffffffffffffffffffffff16815260200190815260200160002060008473ffffffffffffffffffffffffffffffffffffffff1673ffffffffffffffffffffffffffffffffffffffff16815260200190815260200160002060006101000a81548160ff0219169083151502179055508173ffffffffffffffffffffffffffffffffffffffff16611e496123e4565b73ffffffffffffffffffffffffffffffffffffffff167f17307eab39ab6107e8899845ad3d59bd9653f200f220920489ca2b5937696c3183604051808215151515815260200191505060405180910390a35050565b6060600080600080600a60008781526020019081526020016000209050806000018160010160009054906101000a900460ff1682600201548360030154838054600181600116156101000203166002900480601f016020809104026020016040519081016040528092919081815260200182805460018160011615610100020316600290048015611f705780601f10611f4557610100808354040283529160200191611f70565b820191906000526020600020905b815481529060010190602001808311611f5357829003601f168201915b505050505093509450945094509450509193509193565b611f98611f926123e4565b836124ba565b611fed576040517f08c379a000000000000000000000000000000000000000000000000000000000815260040180806020018281038252603181526020018061385c6031913960400191505060405180910390fd5b611ff984848484612a48565b50505050565b6000919050565b6000600b60008373ffffffffffffffffffffffffffffffffffffffff1673ffffffffffffffffffffffffffffffffffffffff16815260200190815260200160002060009054906101000a900460ff169050919050565b6060612067826123c7565b6120bc576040517f08c379a000000000000000000000000000000000000000000000000000000000815260040180806020018281038252602f8152602001806137d2602f913960400191505060405180910390fd5b6060600860008481526020019081526020016000208054600181600116156101000203166002900480601f0160208091040260200160405190810160405280929190818152602001828054600181600116156101000203166002900480156121655780601f1061213a57610100808354040283529160200191612165565b820191906000526020600020905b81548152906001019060200180831161214857829003601f168201915b505050505090506060612176611a94565b905060008151141561218c578192505050612328565b60008251111561225d5780826040516020018083805190602001908083835b602083106121ce57805182526020820191506020810190506020830392506121ab565b6001836020036101000a03801982511681845116808217855250505050505090500182805190602001908083835b6020831061221f57805182526020820191506020810190506020830392506121fc565b6001836020036101000a0380198251168184511680821785525050505050509050019250505060405160208183030381529060405292505050612328565b8061226785612aba565b6040516020018083805190602001908083835b6020831061229d578051825260208201915060208101905060208303925061227a565b6001836020036101000a03801982511681845116808217855250505050505090500182805190602001908083835b602083106122ee57805182526020820191506020810190506020830392506122cb565b6001836020036101000a03801982511681845116808217855250505050505090500192505050604051602081830303815290604052925050505b919050565b6000600560008473ffffffffffffffffffffffffffffffffffffffff1673ffffffffffffffffffffffffffffffffffffffff16815260200190815260200160002060008373ffffffffffffffffffffffffffffffffffffffff1673ffffffffffffffffffffffffffffffffffffffff16815260200190815260200160002060009054906101000a900460ff16905092915050565b50565b50565b60006123dd826002612bea90919063ffffffff16565b9050919050565b600033905090565b816004600083815260200190815260200160002060006101000a81548173ffffffffffffffffffffffffffffffffffffffff021916908373ffffffffffffffffffffffffffffffffffffffff160217905550808273ffffffffffffffffffffffffffffffffffffffff1661245f83611a5d565b73ffffffffffffffffffffffffffffffffffffffff167f8c5be1e5ebec7d5bd14f71427d1e84f3dd0314c0f7b2291e5b200ac8c7c3b92560405160405180910390a45050565b60006124b382600001612c04565b9050919050565b60006124c5826123c7565b61251a576040517f08c379a000000000000000000000000000000000000000000000000000000000815260040180806020018281038252602c8152602001806136a4602c913960400191505060405180910390fd5b600061252583611a5d565b90508073ffffffffffffffffffffffffffffffffffffffff168473ffffffffffffffffffffffffffffffffffffffff16148061259457508373ffffffffffffffffffffffffffffffffffffffff1661257c84611472565b73ffffffffffffffffffffffffffffffffffffffff16145b806125a557506125a4818561232d565b5b91505092915050565b8273ffffffffffffffffffffffffffffffffffffffff166125ce82611a5d565b73ffffffffffffffffffffffffffffffffffffffff161461263a576040517f08c379a00000000000000000000000000000000000000000000000000000000081526004018080602001828103825260298152602001806137a96029913960400191505060405180910390fd5b600073ffffffffffffffffffffffffffffffffffffffff168273ffffffffffffffffffffffffffffffffffffffff1614156126c0576040517f08c379a000000000000000000000000000000000000000000000000000000000815260040180806020018281038252602481526020018061365a6024913960400191505060405180910390fd5b6126cb838383612c15565b6126d66000826123ec565b61272781600160008673ffffffffffffffffffffffffffffffffffffffff1673ffffffffffffffffffffffffffffffffffffffff168152602001908152602001600020612c1a90919063ffffffff16565b5061277981600160008573ffffffffffffffffffffffffffffffffffffffff1673ffffffffffffffffffffffffffffffffffffffff168152602001908152602001600020612c3490919063ffffffff16565b5061279081836002612c4e9092919063ffffffff16565b50808273ffffffffffffffffffffffffffffffffffffffff168473ffffffffffffffffffffffffffffffffffffffff167fddf252ad1be2c89b69c2b068fc378daa952ba7f163c4a11628f55a4df523b3ef60405160405180910390a4505050565b6000806000806128048660000186612c83565b915091508160001c8160001c8090509350935050509250929050565b600073ffffffffffffffffffffffffffffffffffffffff168273ffffffffffffffffffffffffffffffffffffffff1614156128c3576040517f08c379a00000000000000000000000000000000000000000000000000000000081526004018080602001828103825260208152602001807f4552433732313a206d696e7420746f20746865207a65726f206164647265737381525060200191505060405180910390fd5b6128cc816123c7565b1561293f576040517f08c379a000000000000000000000000000000000000000000000000000000000815260040180806020018281038252601c8152602001807f4552433732313a20746f6b656e20616c7265616479206d696e7465640000000081525060200191505060405180910390fd5b61294b60008383612c15565b61299c81600160008573ffffffffffffffffffffffffffffffffffffffff1673ffffffffffffffffffffffffffffffffffffffff168152602001908152602001600020612c3490919063ffffffff16565b506129b381836002612c4e9092919063ffffffff16565b50808273ffffffffffffffffffffffffffffffffffffffff16600073ffffffffffffffffffffffffffffffffffffffff167fddf252ad1be2c89b69c2b068fc378daa952ba7f163c4a11628f55a4df523b3ef60405160405180910390a45050565b6000612a27846000018460001b84612d1c565b60001c90509392505050565b6000612a4182600001612e12565b9050919050565b612a538484846125ae565b612a5f84848484612e23565b612ab4576040517f08c379a00000000000000000000000000000000000000000000000000000000081526004018080602001828103825260328152602001806136286032913960400191505060405180910390fd5b50505050565b60606000821415612b02576040518060400160405280600181526020017f30000000000000000000000000000000000000000000000000000000000000008152509050612be5565b600082905060005b60008214612b2c578080600101915050600a8281612b2457fe5b049150612b0a565b6060816040519080825280601f01601f191660200182016040528015612b615781602001600182028038833980820191505090505b50905060006001830390508593505b60008414612bdd57600a8481612b8257fe5b0660300160f81b82828060019003935081518110612b9c57fe5b60200101907effffffffffffffffffffffffffffffffffffffffffffffffffffffffffffff1916908160001a905350600a8481612bd557fe5b049350612b70565b819450505050505b919050565b6000612bfc836000018360001b613068565b905092915050565b600081600001805490509050919050565b505050565b6000612c2c836000018360001b61308b565b905092915050565b6000612c46836000018360001b613173565b905092915050565b6000612c7a846000018460001b8473ffffffffffffffffffffffffffffffffffffffff1660001b6131e3565b90509392505050565b60008082846000018054905011612ce5576040517f08c379a000000000000000000000000000000000000000000000000000000000815260040180806020018281038252602281526020018061375b6022913960400191505060405180910390fd5b6000846000018481548110612cf657fe5b906000526020600020906002020190508060000154816001015492509250509250929050565b60008084600101600085815260200190815260200160002054905060008114158390612de3576040517f08c379a00000000000000000000000000000000000000000000000000000000081526004018080602001828103825283818151815260200191508051906020019080838360005b83811015612da8578082015181840152602081019050612d8d565b50505050905090810190601f168015612dd55780820380516001836020036101000a031916815260200191505b509250505060405180910390fd5b50846000016001820381548110612df657fe5b9060005260206000209060020201600101549150509392505050565b600081600001805490509050919050565b6000612e448473ffffffffffffffffffffffffffffffffffffffff166132bf565b612e515760019050613060565b6060612fe763150b7a0260e01b612e666123e4565b888787604051602401808573ffffffffffffffffffffffffffffffffffffffff1673ffffffffffffffffffffffffffffffffffffffff1681526020018473ffffffffffffffffffffffffffffffffffffffff1673ffffffffffffffffffffffffffffffffffffffff16815260200183815260200180602001828103825283818151815260200191508051906020019080838360005b83811015612f16578082015181840152602081019050612efb565b50505050905090810190601f168015612f435780820380516001836020036101000a031916815260200191505b5095505050505050604051602081830303815290604052907bffffffffffffffffffffffffffffffffffffffffffffffffffffffff19166020820180517bffffffffffffffffffffffffffffffffffffffffffffffffffffffff8381831617835250505050604051806060016040528060328152602001613628603291398773ffffffffffffffffffffffffffffffffffffffff166132d29092919063ffffffff16565b9050600081806020019051602081101561300057600080fd5b8101908080519060200190929190505050905063150b7a0260e01b7bffffffffffffffffffffffffffffffffffffffffffffffffffffffff1916817bffffffffffffffffffffffffffffffffffffffffffffffffffffffff191614925050505b949350505050565b600080836001016000848152602001908152602001600020541415905092915050565b6000808360010160008481526020019081526020016000205490506000811461316757600060018203905060006001866000018054905003905060008660000182815481106130d657fe5b90600052602060002001549050808760000184815481106130f357fe5b906000526020600020018190555060018301876001016000838152602001908152602001600020819055508660000180548061312b57fe5b6001900381819060005260206000200160009055905586600101600087815260200190815260200160002060009055600194505050505061316d565b60009150505b92915050565b600061317f83836132ea565b6131d85782600001829080600181540180825580915050600190039060005260206000200160009091909190915055826000018054905083600101600084815260200190815260200160002081905550600190506131dd565b600090505b92915050565b600080846001016000858152602001908152602001600020549050600081141561328a578460000160405180604001604052808681526020018581525090806001815401808255809150506001900390600052602060002090600202016000909190919091506000820151816000015560208201518160010155505084600001805490508560010160008681526020019081526020016000208190555060019150506132b8565b8285600001600183038154811061329d57fe5b90600052602060002090600202016001018190555060009150505b9392505050565b600080823b905060008111915050919050565b60606132e1848460008561330d565b90509392505050565b600080836001016000848152602001908152602001600020541415905092915050565b606082471015613368576040517f08c379a000000000000000000000000000000000000000000000000000000000815260040180806020018281038252602681526020018061367e6026913960400191505060405180910390fd5b613371856132bf565b6133e3576040517f08c379a000000000000000000000000000000000000000000000000000000000815260040180806020018281038252601d8152602001807f416464726573733a2063616c6c20746f206e6f6e2d636f6e747261637400000081525060200191505060405180910390fd5b600060608673ffffffffffffffffffffffffffffffffffffffff1685876040518082805190602001908083835b602083106134335780518252602082019150602081019050602083039250613410565b6001836020036101000a03801982511681845116808217855250505050505090500191505060006040518083038185875af1925050503d8060008114613495576040519150601f19603f3d011682016040523d82523d6000602084013e61349a565b606091505b50915091506134aa8282866134b6565b92505050949350505050565b606083156134c65782905061357b565b6000835111156134d95782518084602001fd5b816040517f08c379a00000000000000000000000000000000000000000000000000000000081526004018080602001828103825283818151815260200191508051906020019080838360005b83811015613540578082015181840152602081019050613525565b50505050905090810190601f16801561356d5780820380516001836020036101000a031916815260200191505b509250505060405180910390fd5b9392505050565b828054600181600116156101000203166002900490600052602060002090601f016020900481019282601f106135c357805160ff19168380011785556135f1565b828001600101855582156135f1579182015b828111156135f05782518255916020019190600101906135d5565b5b5090506135fe9190613602565b5090565b61362491905b80821115613620576000816000905550600101613608565b5090565b9056fe4552433732313a207472616e7366657220746f206e6f6e20455243373231526563656976657220696d706c656d656e7465724552433732313a207472616e7366657220746f20746865207a65726f2061646472657373416464726573733a20696e73756666696369656e742062616c616e636520666f722063616c6c4552433732313a206f70657261746f7220717565727920666f72206e6f6e6578697374656e7420746f6b656e4552433732313a20617070726f76652063616c6c6572206973206e6f74206f776e6572206e6f7220617070726f76656420666f7220616c6c4552433732313a2062616c616e636520717565727920666f7220746865207a65726f20616464726573734552433732313a206f776e657220717565727920666f72206e6f6e6578697374656e7420746f6b656e456e756d657261626c654d61703a20696e646578206f7574206f6620626f756e64734552433732313a20617070726f76656420717565727920666f72206e6f6e6578697374656e7420746f6b656e4552433732313a207472616e73666572206f6620746f6b656e2074686174206973206e6f74206f776e4552433732314d657461646174613a2055524920717565727920666f72206e6f6e6578697374656e7420746f6b656e4552433732313a20617070726f76616c20746f2063757272656e74206f776e657254686973206163636f756e7420646f65736e277420686176652074686520726967687420746f2063726561746520416e696d616c20546f6b656e4552433732313a207472616e736665722063616c6c6572206973206e6f74206f776e6572206e6f7220617070726f766564a2646970667358221220a61f552221154630ab586be17d2dff7c78eda78951b6827010788305a739bff364736f6c63430006020033",
  "source": "pragma solidity ^0.6.0;\r\n\r\n\r\nimport \"./IExerciceSolution.sol\";\r\nimport \"@openzeppelin/contracts/token/ERC721/ERC721.sol\";\r\n\r\ncontract mysolutionerc721 is IExerciceSolution,ERC721 {\r\n\r\n    struct Animal{ // NFT particularities\r\n        string name;\r\n        bool wings;\r\n        uint legs;\r\n        uint sex;\r\n    }\r\n\r\n    mapping(uint => Animal) public NFTdetails; // link a NFT to its detail.\r\n    mapping(address => bool) public breeder;\r\n\r\n    address public proprio;\r\n\r\n\r\n\r\n    constructor (string memory name_, string memory symbol_) ERC721(name_,symbol_) public {\r\n        proprio = msg.sender;\r\n    }\r\n\r\n\r\n    modifier ContractOwner(){\r\n        require(msg.sender == proprio,\"This account doesn't have the right to create Animal Token\");\r\n        _;\r\n    }\r\n    \r\n    // function for Animal creation \r\n\r\n    function Creation(address _to,uint _id,string memory _name,bool _wings,uint _legs,uint _sex) public ContractOwner {\r\n        _mint(_to, _id);\r\n\r\n        Animal storage a = NFTdetails[_id];\r\n\r\n        a.name = _name;\r\n        a.wings=_wings;\r\n        a.legs = _legs;\r\n        a.sex=_sex;\r\n\r\n    }\r\n\r\n\r\n    //function of IExerciceSolution.sol function :\r\n    function isBreeder(address account) external  override returns (bool){\r\n        return breeder[account];\r\n    }\r\n\r\n\tfunction registrationPrice() external override returns (uint256){\r\n        return 0.0001 ether;\r\n    }\r\n\r\n\tfunction registerMeAsBreeder() external override payable{\r\n        require(msg.value > this.registrationPrice());\r\n        breeder[msg.sender] = true;\r\n    }\r\n\r\n\tfunction declareAnimal(uint sex, uint legs, bool wings, string calldata name) external override returns (uint256){\r\n\r\n    }\r\n\r\n\tfunction getAnimalCharacteristics(uint animalNumber) external override returns (string memory _name, bool _wings, uint _legs, uint _sex){\r\n        Animal storage a = NFTdetails[animalNumber];\r\n        return (a.name,a.wings,a.legs,a.sex);\r\n    }\r\n\r\n\tfunction declareDeadAnimal(uint animalNumber) external override {\r\n\r\n    }\r\n\r\n\tfunction tokenOfOwnerByIndex(address owner, uint256 index) public view override(IExerciceSolution,ERC721) returns (uint256){\r\n\r\n    }\r\n\r\n\t// Selling functions\r\n\tfunction isAnimalForSale(uint animalNumber) external view override returns (bool){\r\n\r\n    }\r\n\r\n\tfunction animalPrice(uint animalNumber) external view override returns (uint256){\r\n\r\n    }\r\n\r\n\tfunction buyAnimal(uint animalNumber) external payable override {\r\n\r\n    }\r\n\r\n\tfunction offerForSale(uint animalNumber, uint price) external override {\r\n\r\n    }\r\n\r\n\t// Reproduction functions\r\n\tfunction declareAnimalWithParents(uint sex, uint legs, bool wings, string calldata name, uint parent1, uint parent2) external override returns (uint256){\r\n\r\n    }\r\n\r\n\tfunction getParents(uint animalNumber) external override returns (uint256, uint256){\r\n\r\n    }\r\n\r\n\tfunction canReproduce(uint animalNumber) external override returns (bool){\r\n\r\n    }\r\n\r\n\tfunction reproductionPrice(uint animalNumber) external view override returns (uint256){\r\n\r\n    }\r\n\r\n\tfunction offerForReproduction(uint animalNumber, uint priceOfReproduction) external override returns (uint256){\r\n\r\n    }\r\n\r\n\tfunction authorizedBreederToReproduce(uint animalNumber) external override returns (address){\r\n\r\n    }\r\n\r\n\tfunction payForReproduction(uint animalNumber) external payable override {\r\n\r\n    }\r\n}",
  "sourcePath": "C:\\users\\nathan\\desktop\\td solidity\\erc721-101-main\\contracts\\MySolutionErc721.sol",
  "compiler": {
    "name": "solc",
    "version": "0.6.2+commit.bacdbe57.Emscripten.clang"
  },
  "schemaVersion": "3.4.11",
  "updatedAt": "2022-12-30T21:48:25.950Z",
  "devdoc": {
    "methods": {
      "approve(address,uint256)": {
        "details": "See {IERC721-approve}."
      },
      "balanceOf(address)": {
        "details": "See {IERC721-balanceOf}."
      },
      "baseURI()": {
        "details": "Returns the base URI set via {_setBaseURI}. This will be automatically added as a prefix in {tokenURI} to each token's URI, or to the token ID if no specific URI is set for that token ID."
      },
      "getApproved(uint256)": {
        "details": "See {IERC721-getApproved}."
      },
      "isApprovedForAll(address,address)": {
        "details": "See {IERC721-isApprovedForAll}."
      },
      "name()": {
        "details": "See {IERC721Metadata-name}."
      },
      "ownerOf(uint256)": {
        "details": "See {IERC721-ownerOf}."
      },
      "safeTransferFrom(address,address,uint256)": {
        "details": "See {IERC721-safeTransferFrom}."
      },
      "safeTransferFrom(address,address,uint256,bytes)": {
        "details": "See {IERC721-safeTransferFrom}."
      },
      "setApprovalForAll(address,bool)": {
        "details": "See {IERC721-setApprovalForAll}."
      },
      "supportsInterface(bytes4)": {
        "details": "See {IERC165-supportsInterface}.     * Time complexity O(1), guaranteed to always use less than 30 000 gas."
      },
      "symbol()": {
        "details": "See {IERC721Metadata-symbol}."
      },
      "tokenByIndex(uint256)": {
        "details": "See {IERC721Enumerable-tokenByIndex}."
      },
      "tokenURI(uint256)": {
        "details": "See {IERC721Metadata-tokenURI}."
      },
      "totalSupply()": {
        "details": "See {IERC721Enumerable-totalSupply}."
      },
      "transferFrom(address,address,uint256)": {
        "details": "See {IERC721-transferFrom}."
      }
    }
  },
  "userdoc": {
    "methods": {}
  }
}